S00F000066316B6D5F736B5F763300003C
S32100000000840754D50000000000000000000000008407DCD50000000000000000EE
S3210000001C00000000000000000000000000000000000000008407BCD500000000A6
S3210000003800000000000000008407ACD500000000000000000000000084079CD59E
S3210000005400000000000000000000000084078CD50000000000000000000000009E
S321000000700000000000000000000000000000000084076CD50000000000000000A2
S3210000008C0000000084075CD500000000000000000000000084074CD500000000EA
S321000000A800000000000000000000000000000000000000000000000084072CD5AA
S321000000C4000000000000000000000000000000000000000000000000000000001A
S321000000E084070CD50000000000000000000000008407FCD4000000000000000037
S321000000FC000000008407ECD40000000000000000000000008407DCD4000000005C
S3210000011800000000000000008407CCD40000000000000000000000008407BCD47F
S321000001340000000000000000000000008407ACD40000000000000000000000009E
S3210000015084079CD400000000000000000000000084078CD40000000000000000A7
S3210000016C0000000084077CD400000000000000000000000084076CD400000000CB
S32100000188000000000000000084075CD400000000000000000000000084074CD4EF
S321000001A400000000000000000000000084073CD40000000000000000000000009E
S321000001C084072CD400000000000000000000000084071CD4000000000000000017
S321000001DC0000000084070CD40000000000000000000000008407FCD3000000003C
S321000001F800000000000000000000000000000000000000000000000000000000E5
S32100000214000000000000000000000000ECD50400ECD50400ECD50400ECD50400B4
S32100000230ECD50400ECD50400ECD50400ECD50400ECD50400ECD50400ECD5040049
S3210000024CECD50400ECD50400ECD50400ECD50400ECD50400ECD50400ECD504002D
S32100000268ECD50400ECD50400ECD50400ECD50400ECD50400ECD50400ECD5040011
S32100000284ECD50400642C0500ECD50400ECD50400ECD50400ECD50400ECD5040025
S321000002A0ECD50400ECD5040000000000ECD50400ECD50400ECD50400ECD504009E
S321000002BCECD50400ECD50400ECD50400ECD50400ECD50400ECD50400ECD50400BD
S321000002D8ECD50400ECD50400061B0500ECD50400ECD50400ECD50400ECD5040040
S321000002F4ECD50400ECD50400ECD50400ECD50400ECD50400ECD50400ECD5040085
S32100000310ECD50400ECD50400ECD50400ECD50400ECD50400ECD50400ECD5040068
S3210000032CECD50400ECD50400ECD50400ECD50400ECD50400ECD5040030350500A7
S32100000348ECD50400ECD50400D2220500ECD50400ECD50400ECD50400ECD50400FC
S32100000364ECD50400ECD50400ECD50400ECD50400ECD50400ECD5040000000000D9
S32100000380000000000000000000000000000000000000000000000000000000005B
S3210000039C000000000000000000000000000000000000000000000000000000003F
S321000003B8ECD50400ECD50400ECD50400ECD50400ECD50400ECD50400ECD50400C0
S321000003D4ECD50400ECD50400ECD50400ECD50400ECD50400ECD50400ECD50400A4
S321000003F000000000000000000000000000000000ECD50400ECD50400ECD504009C
S3210000040CECD50400ECD50400ECD50400ECD50400ECD504000000000000000000F5
S3210000042800000000000000000000000000000000ECD50400ECD50400ECD5040063
S32100000444ECD50400ECD50400ECD50400ECD50400ECD50400ECD50400ECD5040033
S32100000460ECD50400ECD50400ECD50400ECD50400ECD50400ECD50400ECD5040017
S3210000047CECD50400ECD50400ECD50400ECD50400ECD50400ECD50400ECD50400FB
S32100000498ECD50400ECD50400ECD50400ECD50400ECD50400ECD5040000000000A4
S321000004B4ECD50400ECD50400ECD50400ECD50400ECD50400ECD50400ECD50400C3
S321000004D0ECD50400ECD50400ECD50400ECD50400000000000000000000000000F6
S321000004EC00000000000000000000000000000000000000000000000000000000EE
S3210000050800000000000000000000000000000000000000000000000000000000D1
S3210000052400000000000000000000000000000000ECD50400ECD50400ECD5040066
S32100000540ECD50400ECD50400ECD50400ECD50400ECD50400ECD50400ECD5040036
S3210000055CECD5040000000000ECD50400ECD50400ECD50400ECD50400ECD50400DF
S32100000578ECD50400ECD50400ECD50400ECD50400ECD50400ECD50400ECD50400FE
S32100000594ECD50400ECD50400ECD50400ECD50400ECD50400ECD50400ECD50400E2
S321000005B0ECD50400ECD50400ECD50400ECD50400ECD50400ECD50400ECD50400C6
S321000005CCECD5040000000000000000000000000000000000000000000000000048
S321000005E8000000000000000000000000000000000000000000000000ECD504002C
S32100000604ECD50400ECD50400ECD50400ECD50400ECD50400ECD50400ECD5040071
S32100000620ECD50400ECD50400ECD50400ECD50400ECD50400ECD50400ECD5040055
S3210000063CECD50400ECD50400ECD50400ECD50400ECD50400ECD50400ECD5040039
S32100000658ECD50400ECD50400ECD50400ECD50400ECD50400ECD50400ECD504001D
S32100000674ECD50400ECD50400ECD50400ECD50400ECD5040000000000000000008B
S32100000690000000000000000000000000000000000000000000000000ECD5040083
S321000006ACECD50400ECD50400ECD50400ECD50400ECD50400ECD50400ECD50400C9
S321000006C8ECD50400ECD50400ECD50400ECD50400ECD50400ECD50400ECD50400AD
S321000006E4ECD5040000000000ECD50400ECD50400ECD50400ECD50400000000001B
S3210000070000000000ECD50400ECD50400ECD504000000000000000000ECD50400C3
S3210000071CECD50400ECD50400ECD50400ECD50400ECD50400ECD50400ECD5040058
S32100000738ECD50400ECD50400ECD50400ECD50400ECD50400ECD50400ECD504003C
S32100000754ECD50400ECD50400ECD50400ECD50400ECD50400ECD50400ECD5040020
S32100000770ECD50400ECD50400ECD504000000000000000000000000000000000018
S3210000078C00000000ECD50400ECD504000000000000000000ECD50400ECD5040037
S321000007A8ECD50400ECD50400ECD50400ECD50400ECD50400ECD50400ECD50400CC
S321000007C4ECD50400ECD50400ECD50400ECD50400ECD50400ECD50400ECD50400B0
S309000007E0ECD504004A
S32100000800496E7075742064622068617320256420656C656D656E74732C20657835
S3210000081C7065637465642025640A006D2D726573756C74732D5B0025302E336642
S32100000838002C005D0D0A006D2D6C61702D75732D256C750D0A006D2D74696D657F
S321000008547374616D702D6D6F64652D706572666F726D616E63650D0A0020006E27
S32100000870616D65006D2D6E616D652D25732D5B25735D0D0A0064757400756E73FC
S3210000088C70656369666965640074696D657374616D7000652D5B556E6B6E6F77CE
S321000008A86E20636F6D6D616E643A2025735D0D0A006D2D72656164790D0A006D28
S321000008C42D696E69742D646F6E650D0A0070726F66696C65006D2D70726F66699C
S321000008E06C652D5B25735D0D0A00554C504D61726B20666F722074696E794D4C31
S321000008FC204669726D776172652056302E302E31006D2D6D6F64656C2D5B25734F
S321000009185D0D0A00696330310068656C700025730D0A000D0A0068656C702020C4
S32100000934202020202020203A205072696E74207468697320696E666F726D617402
S32100000950696F6E0D0A006E616D652020202020202020203A205072696E7420746C
S3210000096C6865206E616D65206F6620746865206465766963650D0A0074696D652F
S32100000988737473616D702020203A2047656E657261746520612074696D65747399
S321000009A4616D700D0A00646220535542434D44202020203A204D616E6970756C88
S321000009C061746520612067656E657269632062797465206275666665720D0A00D8
S321000009DC20206C6F6164204E20202020203A20416C6C6F63617465204E20627923
S321000009F874657320616E6420736574206C6F616420636F756E7465720D0A0020BB
S32100000A142064622048485B48485D2A203A204C6F616420382D6269742068657895
S32100000A30206279746528732920756E74696C204E2062797465730D0A0020207044
S32100000A4C72696E74205B4E3D31365D205B6F66667365743D305D0D0A00202020BE
S32100000A68202020202020202020203A205072696E74204E2062797465732061741B
S32100000A84206F6666736574206173206865780D0A00696E666572204E205B573DA8
S32100000AA0305D3A204C6F616420696E7075742C2065786563757465204E20696ED9
S32100000ABC666572656E6365732061667465722057207761726D7570206C6F6F708E
S32100000AD8730D0A00726573756C74732020202020203A2052657475726E207468CA
S32100000AF46520726573756C74206670333220766563746F720D0A00696E66657283
S32100000B1000652D5B496E666572656E636520697465726174696F6E73206D757370
S32100000B2C74206265203E305D0D0A00652D5B496E666572656E6365207761726DF7
S32100000B487570206D757374206265203E3D305D0D0A00726573756C7473006D2DEB
S32100000B647761726D75702D73746172742D25640D0A006D2D7761726D75702D64E4
S32100000B806F6E650D0A006D2D696E6665722D73746172742D25640D0A006D2D6921
S32100000B9C6E6665722D646F6E650D0A00646200652D5B436F6D6D616E6420276485
S32100000BB86227207265717569726573206120737562636F6D6D616E645D0D0A00C4
S32100000BD46C6F616400652D5B436F6D6D616E6420276462206C6F616427207265C8
S32100000BF0717569726573207468652023206F662062797465735D0D0A00652D5B09
S32100000C0C436F6D6D616E6420276462206C6F616427206D757374206265203E30B5
S32100000C282062797465735D0D0A00537570706C6965642062756666657220736913
S32100000C447A652025642065786365656473206D6178696D756D206F662025640A3F
S32100000C60006D2D5B457870656374696E672025642062797465735D0D0A00707290
S32100000C7C696E74006D2D6275666665722D0025303278002D00652D5B496E737512
S32100000C9866666963656E74206E756D626572206F662068657820646967697473B4
S32100000CB45D0D0A00652D5B496E76616C6964206865782064696769742027257381
S32100000CD0275D0D0A006D2D6C6F61642D646F6E650D0A0000000000000000000043
S32100000CEC000000000000000000000000000000000000000083CB1B3FE6EEA43E88
S32100000D08AE07323F7D51A03E1E92003F91AE343E8C75043FC377183F1B5B3B3E93
S32100000D246CCE9B3E9DE1143ECF45383F1A2A3E3F7E9930BE939C70BF09FEB83F1D
S32100000D40C12D6E40608B8BBFE3A72A404229A83F002F6D403493003F105833BF3E
S32100000D5C686FD43E6D2AE33FEA7C503CF2D091C09BF290BFBE37E63ECF470B3E7A
S32100000D78B856333E7AE0923FA8B3643F3146813ECC4A76BECAF4A3BF62AAC63D02
S32100000D94EE32643DB4B1C3BE060D6DBFC15F40BC39B0933F3FDE903FDB6A7CBE15
S32100000DB076C44FBE9329163EB918193F90D389BF3E22B6BDEB0020BEC41C903CAE
S32100000DCCAFC3903DA8F93E3DFD5F07BEF6BE2E3E2BC8DEBD1E6BDCBBE299373ECB
S32100000DE80000000000000000000000000000000000000000000000009CB5133B4A
S32100000E04E148423B78008ABBB36BF93AA45DBEBAC3E9AEBBC6FADB3B3F93C43AE4
S32100000E208DD714BCD6A301BCB51C65BAEF7FDA3B92342EBAE56C6A3BE3038FBA00
S32100000E3C0E28E9BA49BA6DBBDD83DABAD3EBEEBB19373DB8F010333A30DF5B3BDE
S32100000E58B84CA93B433E393CA49700BCF1780ABB5DD37E3B2575BAB99FAC323AC8
S32100000E74BF552CBB7D76093B2D9EEABA1663A7B95C5C953A8B5C27BB198B15BA1F
S32100000E9035A038BAA334D8B96CCD65BA324F20BB35125ABBF2FB33BB1D726A3BF2
S32100000EAC6A4051BA50AD303BF30802BB765F8C3A22769E3A756DB73A4907623A85
S32100000EC8298B1ABA3277323BD6941DBB3D58123B0F238ABB3703B3BBE44E253B95
S32100000EE490EA8F3B0BB7993BBD75143B89A3C0BB4F024E3B1E18B439B5FB5C3BA6
S32100000F001AF97ABBB78959BA433D9CBBCFDCA9BBD461C5BA3DE760BB0D8C8CBB7B
S32100000F1C4BD9CBBB1A0A123CF707C73931C816BA70B4E13A7246773BCA99CBBA3F
S32100000F381F09FC3975EA973BD755D53B3011CDBBC3E8B43908042E3A0E0BD6BB4E
S32100000F542064B63B5CEEFDBA8E11CB39AD36893B997993BBA3CBC7383F81503BA3
S32100000F70DBE3B23AE9BDBDBA43A5413C8854E83AF677563A4681133BCED17FBB4A
S32100000F8CC527883B21D809BA37CD79BBE59270BBD4932B3AA29B61BB082F43BBA4
S32100000FA831E82A3B8CFA57BA9FF71CBC5ED8763BF520D13B484ACEBB756D383B2C
S32100000FC4540337BB0AF53F3BCC380E391BF9A2BA0D6E01BC2DFA853AD600E33B7C
S32100000FE0A0CAE5BB3B4130BA48C116BB437D793A7E59393BBD3B053BA0DE013CF4
S32100000FFC33501E3B72CA38BB9026ED3B8BA4B0BBEAC553BBE49EC13BC481CFBB46
S32100001018404CE8BA5B0E843BBF06A23AE641633AC1E36EBB7EE7DDBB7E2B8FBB3E
S32100001034362066BAF61D41BBC6B86FBBC1EF81BB34A080BAEEEF9CBA6DCD2CBB1F
S32100001050D88A2E3A599F043A97E362BA383AB03B7ABD043BA26E2ABAF0B802B9BE
S3210000106CCEF6CD3AA2138F3BDB33ECBA4EF80C3BA37F943B8BB0AF3B8F75EE3A95
S321000010880EF8973BA423EBBBAF9E9F3BF042ECBAD1E8E6BA8523F13B8EAF50BB8D
S321000010A455AAEF3A96FAF53A676284BBBBAB92BB9250813A5FFD1138CE36033A05
S321000010C09166FDBB6F74F83B228C1C3CFD67B1BA7CBBD43A1800E33BBF199D3B49
S321000010DCEBE58DBB2AB590BB4D3E19BC724BD3BA5C75CC3B8C9DD1BBA691463CC0
S321000010F8219935BC8DDA20BC57FB593C268CEEBBFB5909BC86747E3BAF319A3B25
S32100001114A8DF523A9643443BABA2173C93C0DC3A84A91EBB1AEA2B3B25B2923B31
S321000011308B0ABEBBF95DF8382064B0BB03DB3ABCDB26073CD758DD3B684574BCDE
S3210000114C609D66BCEBA560B9633B4F3B3E6FD23B2B402E3CCFEE0D3BEA4CA0BB6C
S32100001168C2778C3AD720B03B5D0F983B8EDAD83B4593A13BF8FA2EBA9BB2A2BA93
S32100001184831513BAE8D376BA69A7A83AF135B9BBAD1AEE3A5320AE3BA7F6BCBB0E
S321000011A0799FC9BB00BC8BBAA497363BDE5E47BB69CE813AB5E414BADC5434BB2E
S321000011BCAFAC45BBA591C0B9E1814C3AB0238EBA9207833B2CDBB8BAFAA5D23A89
S321000011D8477A2BBA948478BAB2B7BABADE8E23BB5082FDBAB83A4A395F55DA3B17
S321000011F42119263BD06BA63BA4D049BB9B2434BB5B3528BB255246BAD49BA2BA47
S32100001210A56BE9392C07F539D543C5B9F196613AE0F77F3A0A52D5BA65E21C3B58
S3210000122C7A60BBBAA8AAF23AF76062BB5522243BE150AEBAECA61F3AC9D61C3B0F
S32100001248482CA039884F703AF833BEB91EF8E73A095ED8B9BE4CF43AD10F4CBAC7
S32100001264A30670B99758343A3B1444BBE1AA9CBABAA1B93A1771E93A20BF1139E8
S32100001280FFA568BAEB7FB1BA0A8415BA4A57AEB9B00B51BB02E210BB78912E3A65
S3210000129CCF4393BA97B2DCBA24AEFC38A57DA9BA8094863BE69C933B53E3A4BBAD
S321000012B898E03F3B655626BBB10392BBE85B30BBE39417BA74BA13387989E93972
S321000012D482AD23BB222BBF3A12525F3BC75ACC3BBCB2803BA6E004BBD9B155BB77
S321000012F06145A9BBA47559BA927C00BB0B8389BB4DCED6BA2A02023B1EB3FF3AED
S3210000130C624033BBC68AF8BB99AAA3BB1221E0B97CA298BB4B93A7BB04D1C33B3B
S321000013280389EE3A9A29243C3952883BD85E583BB82F9EBB183F783B9E38D4BA07
S321000013442E01613B8E4680BBE9F637398E5B393B3786C2B9C278D83B133DB6BBBB
S3210000136070E791BBB8BBA83B60DB8FBB08411C3B38FDE93A7D5C1CBB89951EBA4F
S3210000137CE81EDABAB0DFF5B9034A413AE06DDFBA223E253A18BAA93AA0D4A8BA80
S32100001398046B77B94DA401BA8BECACB994D0E236CA55A2B98C1E6539FA61AC3A8D
S321000013B41838F03A39E268BA5174E2392AAE303A0DE01339EC34D23936B000BA3A
S321000013D02541BCB9C64900396122EB39A106F639F931F039BA05843A04CE7E3A01
S321000013EC59341ABAA58762B8EEA898B9185BA4BAB461233AB667BF3A9E330CB962
S321000014088C74CA3A940286BA3E9924BA2FD6B3B9A536A03A48F6BC3AB82C953A26
S3210000142430F7B43ACF33973A9FA01ABA606091BA82EB6A3A839835BA1007473AED
S321000014404304A03AF72072B9AF3C2F3B0D61C03956D25EBB4ED6823CA19FC7BB86
S3210000145CA828A63BFBDD1FBAF038A6BCCCF00EBC77CEE33ACAAA96BB49A7AD3CFC
S32100001478C03E43B9FB70A03B382E41BC9EE8133B45046C3C1B0D2DBB45028DBC4A
S321000014946BDEC63A4C93D73AF2753E3BDD789DBAE49D1ABC640A723A5039813CBA
S321000014B0C21BB9BBF6BE38BCD77C1F3AD2C7213C80309E3D9B191E3D49FA8A3CDC
S321000014CC55E3B2BCDE47AABDC0C3083E2725413DA8E2A63EFD5C9BBDD56048BCE1
S321000014E816E7073C6FAF193D0FD7563CADA2E63DBB7D6CBED22206BCB1DE013D5F
S321000015044884D2BDA7F600BF0EC1623EE675AEBE37A1193D58F8C93DCFE5DEBE04
S3210000152029C7C6BDEAD6C0BD677F5BBE2FD9E3BE0571E23D42C103BEFA40E1BD20
S3210000153C4F93703D37BE8EBE8E97ED3D01B9D6BC72EC47BE1C62D53D40BE0E3DE6
S321000015583635803EF969563EC09B243ED99C7DBD9A66163CB294C0BD384DA2BEEC
S32100001574575AA43BEE3CEB3D294A15BE818403BE221162BD015D4B3E638FB13E4D
S321000015908B5DA63D2F97ABBD8D2F093E5A90BEBDCAD0B7BEFE8ABC3DF280ADBA6F
S321000015AC0E0BA13D9046AEBDBE58743ECC2599BEBB4026BE61B325BEA5FDC4BEDB
S321000015C8AAB499BD8A5C933E08D82DBEE317CC3D967203BF1E09553D318F8ABD3E
S321000015E4F7733C3E6543D8BEEE8F71BEEA78D6BE6AC215BD6E3DD2BD8B44A73E35
S32100001600693608BE3366833EEA8EB23CC23122BF19960A3ECC83123E0F0EB5BDAA
S3210000161C1F1837BE86C345BE9BBF213E29972FBECB0C06BE5CB313BD3F68FABDF6
S3210000163861B3AD3D7733683DB6258F3DE345EA3D2DE497BD3CAAD2BD4AB1A93C93
S321000016547438F9BE18B12FBD2A254BBE1AEEF23D9C8A7BBDCE5E00BDD2238E3DC6
S321000016703C91F43DE89397BC59C0D4BDB883623C1D2D453EACF73C3C211E353E6F
S3210000168CF781F7BC5D5819BDB6B533BE61F233BE4ED930BE832B24BED33A043DF3
S321000016A8F0193ABD527D0ABCF81BEBBE6ABA61BDBA1D3A3DE42227BFA343E03E4F
S321000016C4B622783E8EEA623DF294D0BE807F8B3D129A05BD524F4FBD7B25B7BC56
S321000016E0E8A050BDE3F06CBE0899313EFA15163D00ED933C38E838BEC397113E69
S321000016FC45F2DEBD7C91A33C51E329BD6938D9BC1AF4C43C35AC1B3D09790A3EAD
S32100001718456D513D67624F3D344413BE2BCF1E3DD9E7213C266E06BD533D1A3E20
S32100001734B4D6453AA3D29D3DB16AFA3D6D0E403D388EEEBD0146313E07B7953D3A
S321000017502F191B3E1B58F73D4595AFBC6A5E76BE2839FEBC1D83693E72060E3DC9
S3210000176C4DBE243E2CAE4A3D41722D3D9FAE1B3D52EA853E8EAB9E3DBD5B8D3AD9
S32100001788FE06003EAF120C3E6F5DDF3D0712363ED91F203D5CB514BE4748903DE9
S321000017A49B1E283E1F7AFFBCF5186F3ED1611A3B0C8070BD0B7DE0BC9ED8713E6D
S321000017C02D27A13D89D09BBD1DBC0ABDDF4405BE222A99BD77BA2DBEF2E323BD2B
S321000017DCEFF9723D98AE89BD54ADECBCC181B93D3C159DBD471EA7BD28C050BD7E
S321000017F83391293EAAAD40BDFA5CE8BCA3AB13BEEB6E653E5BB22EBDF5FB963D80
S32100001814E8A489BEF2FDF1BD2DF249BED69609BE5CD9373E67150E3EB16860BD41
S32100001830AD1ADA3B035FB43C769E9E3D0380BEBDC6AA7DBD82D1D8BD7C03383EF4
S3210000184CDCE7103DBB9B683D93B8AF3B91DC423A7B7A87BE0D1FDBBD5A9A1C3E05
S32100001868E1BF873DB36EFABCC690D53C287E0ABD6E594DBD1130FB3CDAA62C3D1D
S3210000188487FC253D8EBB83BDBACE963D56F8F8BDC8E1B23CFD1EC13B7322AC3D4A
S321000018A02905A43D5437D3BD9464683D215871BDE96F89BD90A2FABD7822A83DB2
S321000018BCC5E64ABC2C7CC23CD83B173D4A7F75BDFEFC0DBCBEBD233D6756B5BD84
S321000018D8F58509BE92CBBF3D09B03BBCE67E143E30AFBC3D491178BC0DD58BBD5E
S321000018F42F2A63BDFE375D3C00A8A03C7BCB0DBED73470BDF68F5DBD6471B2BDDB
S321000019101B19E6B961A74E3C01AD663D9ECBA3BD94B6EABDD327ADBCAA88713D02
S3210000192CCEF695BDDDFF2C3E44BDAABDF435A1BD2EC51D3E791602BE7A1C813E5C
S321000019482A9149BD2D1FC53EE48ABFBC60D6103EFBF89F3EBC60043E6ED3DE3D76
S32100001964502A35BE0A3ADFBDA035853D25867ABDB9D3F73D67DA993EDE9ADF3D2F
S32100001980D34446BC0224933EBBEB12BEC9A1303D9836C33D6A5C82BDF4A5B6BE08
S3210000199CAF418EBEBE6E9B3D1823F0BDA435993D90FC893C29AE083E42D4693E27
S321000019B8D74E6F3E235D273DF5B784BDBF34FABD9D81CEBD3EF0EDBD57FA143D9D
S321000019D48BA4D63D2608ACBEC4A4473D6821D83BCF18EFBC47A666BED5B40C3E19
S321000019F0911D15BDD0A95F3C464CA93E290E81BD54C11BBD1FBD023EFC44BFBC8F
S32100001A0C4D8B903E299CADBD101D523ECEAC2F3D77250D3D2FDF87BEB92342BE2B
S32100001A286E3A913DF99CC13D6E533EBEFE5A683ECAF51C3DE5174F3C76B12CBD29
S32100001A441D80453E671AFCBD133179BDD7A65D3C2B38903DD31AECBE1B51D0BDD6
S32100001A6009E33ABD0620D1BE2A247C3EBABB433D67A028BE86D5C33EBBCAA43D20
S32100001A7CE390EA3EDBDC053D7C1C33BEBAD900BD9A97DBBEB14A8ABD6984503D55
S32100001A98971F2CBC0D5B953E0CFB8EBDBD4B873E4974503E40278BBDCA5BACBDAC
S32100001AB48E08FA3D518B793E21F6FDBDBF928B3D17DA30BDB1D057BD0CE9E33C3F
S32100001AD0C74E2DBDA7D60E3D4E8E1DBEB37B6FBED35599BEEA2F9C3D86D032BD65
S32100001AECDEA4AF3E7FB260BEBA59BABCC1402CBE69AFCDBD2A252EBE30C8223E71
S32100001B08184702BE548892BD0931033DF33407BE9BC026BE2B82643EAA35EEBCF4
S32100001B24A7A772BE9888D53D916C8E3D7EE4153DAFCBE33DBF4C80BD066E3BBE24
S32100001B404E815CBCDC73F2BDF02B37BE130080BED83FB6BDC051843DCBC1353DE3
S32100001B5C422B27BD2F0D0A3DA934933D1B70543E21FA5CBDE63E623D8DAA24BDBA
S32100001B78BA49543D6F86793DA1312A3E403AD23BD814E6BE61FB9CBEF788AD3D9C
S32100001B94C50FDFBEDB4BA5BE6AFA1DBE744F89BE077223BDC3325F3DD76108BD05
S32100001BB09FBB763D20E1C33D715B313E19F58FBCF8EA9EBE52F30EBE11CFF2BE92
S32100001BCC79713F3DB1101A3D14B19FBE51285FBE3CE4ACBE02803D3EFDB1783DD7
S32100001BE834FF013CFA36223E2DB8453C61E9AD3D54952E3E308F97BE51A31CBE0A
S32100001C04769ADBBDE1C4B7BDD02EA93ED321A33DB5B563BE307032BCF41BAA3E34
S32100001C204EE88B3E42327B3DE0DAF93C7F68043EDFBBAF3DEE37523E13A22E3D04
S32100001C3C2BD7853D2E55093E3647753CE1CD503DF4F9A6BDFBF94E3D4EA38DBE84
S32100001C585D103ABE9C273A3EA2E2263CEC06B13C5128F23BD793143C335D093ECE
S32100001C748F85F03DFB0CEFBB3326903D21F635BE5F3918BEC3244F3E3EA6ECBDBD
S32100001C907B1EABBD9C445ABE18E7F1BD1694A6BDB69FA03E5188853EC1048A3D24
S32100001CAC84E7FE3D50722ABE0DA7833DC652E73B5CF0B03DFA0DE2BD1CA4893DB3
S32100001CC8AA0B2B3EA688C43C6258463ECEFE8A3E68E6A53EFA563CBEE16D833C54
S32100001CE459E1243EB207373EFDDB4B3E8DE79ABEDFF7F13D5978E1BDDF5CA13D5B
S32100001D005C32043E9F2C043E8394EE3DAF84F9BD425BDABD4ADDCFBD9A28E33DF0
S32100001D1CCBDA7BBD607D5EBCBCAD16BDDF3C7C3D9614C8BD31DB1CBE0D5AEDBD9B
S32100001D38B3EE62BC7FF04DBDF03CB9BCF6F4AE3C79F5BFBD167B1DBD04E0DABD0C
S32100001D540055483D22E82F3DC2AECC395EBE23BE14B9C8BDB695C73CF21A943D2E
S32100001D70A9609BBE52CB91BD08AC76BCA16C153E3B44AB3B15B0F13D9EAC21BEBD
S32100001D8C9298AE3E8FF80C3EC48A4F3E64BE5F3CC4CABA3DF453BDBDE0B9753D25
S32100001DA8B93B9739EF300BBD474D8D3D2E5668BC3441D3BDC703EC3D336D6CBEA6
S32100001DC4D7C3C53D6F72C8BEC144F6BED70E3E3E5783FBBD680BF5BE94F98D3DD1
S32100001DE0800B18BEA5F43BBEE7040DBEB99364BE0F7F16BC2E0095BE3CB64A3E6F
S32100001DFC0D6016BE7835BA3BA682643CD7164A3EA5739EBEE08F283D3D7DFC3D6A
S32100001E1898C76ABEE4DAF0BE0417803D7B840E3CBCA2CABA2A83FB3C44926C3D4F
S32100001E343644C1BE4691BC3D355BBEBEE221483E26FBC5BEC8E03B3E5EC1D13E3B
S32100001E5097E3ED3AAD38D83D426D1CBEC314B7BE967BA83E206307BFF073FE3C23
S32100001E6CAF2C50BE69727E3D346961BEF5B00A3E96A3BBBD3D3779BDEE580C3E41
S32100001E88A94983BE97B786BB0D4FAF3E471233BE0FE46EBC2DDFC33D6613883D7C
S32100001EA4845EB2BEFA0EBABDE8E3813DF821B3BEA53CA2BDDC94D53DC22CE2BDE9
S32100001EC077C524BE66B1713D7C9336BD5063DFBE966FB9BD7D0E453EF11D2DBE49
S32100001EDCEA87203E3DE326BEE74F033F9DDA593BE2B0133E344F0C3EDB3DA4BE64
S32100001EF8210FA23C412B47BEEEB4BE3C81B525BE363AB23E72CF95BDCEF1273D7E
S32100001F14D7AE1F3E4560813D69F521BE0A68BC3D216A05BEB53EC63C3D58D9BD50
S32100001F303F5AAA3E5D1017BEEAB85B3CD85657BE7A9F7EBD9E56773E69FE023DAD
S32100001F4CCE23DA3EDC1E593EDFB350BED9EE11BEA44982BE6A1B563EA2FDB6BE4A
S32100001F6856C21DBE01EC1DBE59258DBEC3C5903DD91E12BE22E411BDCC4E543D38
S32100001F846183773E0E25363D123810BEFDB3FDBEF8D3563DBF95B2BC728C1D3E00
S32100001FA08090A9BDDF00393E8670D93DFE65723E0839E9BE8912D3BD7D04B5BD2E
S32100001FBC9921B93E4512CEBDD7F48E3BDFDE26BEE91A66BE822E89BEB93D70BDFA
S32100001FD8B116933EFA700DBD7B8D69BED5A58B3D1D3C0A3E08FFADBD4CB2E3BDFA
S32100001FF40B3AEFBD787A39BD2448013E1EC8F2BE51EAB6BD9FB43A3EEB2C24BE3F
S3210000201078DDA73CA2A1153EABF5A93ED956DF3DC823FEBDDCB912BEA9D323BEA6
S3210000202C549E843E67DE173E65FF87BD14F2393E4162D33DB4A2883EDC8B173E94
S321000020485D176EBD25614F3E9E2CAABE960B79BEBA88D0BE9E24FDBE6B8258BD6B
S3210000206492661C3EACA9C33D24B01CBDD8B9B1BDD79A0FBDD04018BE4E3C943E88
S321000020806735A03EB37340BE4F8E1B3DA25C3F3EC344EEBBA382B63DD39C57BDA5
S3210000209CC08D003E9ECC04BE6D7385BE9FDD7EBDEAF999BEDAD728BECFF012BD32
S321000020B8A5017EBBAF4D04BE460A11BE057682BE8796BBBD1D521FBFAF0F363D7C
S321000020D4DC21F7BD81F6393F8F68033EF24501BFD41799BD9DA021BDA976993BCC
S321000020F03D872EBD903D10BE9FD94E3ED31B32BE28422FBEB61503BE6F3324BE3B
S3210000210C4AB6D9BA83218B3C434CA2BD7F98A53E1B6252BE0D29523DC55690BE10
S321000021284CAAEABC8243A33DBE8967BEE55249BEBA2380BED06CA33EBBB413BD33
S32100002144E642DEBE00D1D73D9E809C3E840F9E3DE54E27BEF355F63B62CA623C0F
S32100002160009DB93D7ABE1EBEF5E3853D2FB6343DB9F8833EEFD617BD019EAABDB5
S3210000217C7CDEEC3D6F8A58BEA08185BD876B72BD2BF19DBE49EC00BE6CCFAABD1F
S3210000219810DDD7BD648A5639A09B9ABED57B393E733A4D3DB387443E02A322BD56
S321000021B4249AE9BC7384AE3EC303BE3E61D335BE2606773D67E8D63DC0A480BEF6
S321000021D03A400A3E5FEC273EB05A1FBE5BFA52BE20C58C3DD12582BB8CB1FDBC58
S321000021ECEDD7723E9A398EBEF58DD3BDFD6DAEBB4176E4BE241BADBD0D0D1EBE61
S32100002208E4BCF6BC439F71BD17778F3DDE55543E7E482E3E711E2BBEB74DE33D65
S321000022246853B4BE914CC43DB4EAD93E625BB93EC0FA623CFD82E23DF4163D3EA9
S32100002240958CF73EC513973E00A7B23DE2010D3EA9DF0EBE3CAD6A3EAA1BBE3E0F
S3210000225C6F2B3BBEFF8E43BEA461813EE83E74BD14B38EBD056E1C3D55A122BC72
S32100002278FCBB833E5218AC3ECB79AC3E3E32F33D6D1E4EBDD02D453E24B967BB95
S3210000229421EDF53CB650C83EAD2BECBDFB43E43C0352383E72717BBD20D3ED3CFC
S321000022B082B490BC37D6173E1FB14E3EC9EED4BBBA37B83EEAEDDD3D147AAEBEB4
S321000022CC86243CBEA7D30BBDA3D24F3E5650423DBDF79E3C63AF23BD40D3603DB3
S321000022E82003F7BCF24DC0BD2091A93A21A5C83CC74D313EFB918A3D8B5BD7BD94
S32100002304D3945C3DDAED7E3EEDB0153E81E53DBECECDFDBCD71B933DA4F9723E80
S32100002320C9837F3E78040A3EA69D27BE828EB8BDC83CA1BDB02C9BBA151236BE73
S3210000233CC8E7673D533E90BE2AD9AABE41FE29BDAAF63F3EF16015BDFD1C1EBE88
S321000023581A38ED3CF9FBA03E27F4003E9900FEBD90C5A4BE8ACF9ABD1E91B7BEDE
S32100002374E0773C3DC6732EBEAF0A75BD5D7C6A3E984383BE621EBBBEFA4556BE7E
S321000023907D0B4CBDDA322CBD1C81963CD75E343EB0621DBE0B3BB3BD8099B4BE61
S321000023AC87D303BED5F060BEA8970D3DEE6191BD1E64D2BD70ECFCBDC81501BD2A
S321000023C8BE396C3E49F257BD3B99EABC20A5213D7096A4BD251C5F3DCA49C93D09
S321000023E47884113CA63F4EBEA5DF123EB64E623E9E1670BDFCB3DEBEAA954C3E30
S321000024002C139FBE69D39DBE8753463C36711DBD38ABB33ED714E33D4B053A3D04
S3210000241C56E202BD5D97183E3AF8CCBE04F46FBEBC30643EB51E58BE987FAEBD83
S321000024387586A4BEA880753D2E219BBD1C5880BE2A2C66BE4FD283BE6D559B3E7B
S32100002454FA9692BD5E930EBD289327BE98EDAA3D35E23DBE3BD9B1BE0365213E63
S321000024707C60EFBDE76FD2BD742E0CBEF5F68FBDC61D20BD6712FBBC791B75BE83
S3210000248C3B91A4BD47A6323D7C8A90BEFD240CBDC7EB7EBE30C9B53D5F0DB8BDAD
S321000024A8A141453D6C301DBD14D23BBC290CD53D9FCB8ABC03B858BEF802ACBD30
S321000024C4AE7BA93D80CD4CBE56DF36BE1601BA3C316B16BDFD553E3E8C58053FF5
S321000024E099A23E3D6583B13D5AE8CC3D9870B83EFE502FBE5E4CCD3D7EFD263E37
S321000024FC493DE2BEFD7707BDCB1E51BDE5E771BDDBCBB33D9CC47EBCEE57563E66
S32100002518BBFE3CBE4CB4CC3CCF5C43BDC77633BDA752843D4F12BE3E6D75513E06
S32100002534025DC13D8E21643EEE25E33BB473A93D1A6503BECB43343EEB512CBCB5
S32100002550BA3BA4BC1F855D3E772938BF2CA7143E0DA9A73DF7D8AD3DA6949E3CB2
S3210000256C3C1EB1BDA52881BD068A863E4C0100BE061F053F99CD883DE378593E95
S32100002588038DA53ECD1A66BE8759963DE01789BE5C39A43D182CB93E6131FF3C44
S321000025A48532543E582F00BD8B351ABE0C8B873EC0B087BD745D8FBDB3232FBE00
S321000025C0AC798B3DFBBFFE3DFC3CFE3EB63392BE10F580BE6E73DBBD458D003E9E
S321000025DCACCDE6BD79088E3E647881BE089318BEFAD2033ED5CA15BE8CE172BDCD
S321000025F831D80EBC7E6CECBE51CDBF3DEC622DBE630609BED5FBCF3E6362B43D44
S32100002614F35D9F3ECE360E3E72585BBE094EBFBDBFD5E93C0156893E26DF043E53
S32100002630DB085EBEFB2D3E3E45B09ABD87D78DBEC9CD81BEBC3B213DD25641BE9F
S3210000264CB168A83EF2032B3E06F8C1BC35273FBD03F7D63D25A3A9BEE767403E34
S321000026683A00853DC9AA27BE7B80D7BD9F6CBEBC7F7ACE3A8306EA3E1ED1C8BDC2
S3210000268445C748BD6BD248BD2F1AA53D546C30BEC1A2D8BD2602F03CDAB9383EB3
S321000026A01348253C54EF513D00570BBEDF6E3ABEDEBDF33D10DEB1BC1779A7BC0D
S321000026BC44A75F3E9E703D3E6822E23DF0427B3E761FD6BCF49993BD346AC9BD2F
S321000026D8B13639BE0AA71FBDA71BE23DAC2A883DE128363DA1F6AE3C480E943DD5
S321000026F4D2560C3E81285BBEB1CB693E3B072D3EC7CFC7BD2077C6BCFCF1893DDA
S321000027105F0F0EBEDF100D3EA7749EBDEB99FE3C34C62C3DB95E013E7846D0BDFB
S3210000272C54AC8FBCF7A401BEC2AB78BDC03E58BE01020BBE1CF2C83D9C4462BE51
S321000027485D8290BE85E9B7BE6FE2AC3C93DA3D3D591B873E7034F63DB83340BD47
S32100002764897EF6BDF61F11BE11605CBE3A16DBBD9D8DD3BD1C3C58BC2179D3BEF1
S32100002780B45071BC3A562D3EE7712E3E565DA43DB21F24BCD93489BE622E6BBCF7
S3210000279C4424503D3F23023D8F142EBCA95E843D54B59ABC6F2627BD256B273D64
S321000027B86FCF3ABE6753953EC7FDA93DC92521BD74D743BE6742203E3EF1D5BCB3
S321000027D4DD92E83BAC6CBE3DC2F85BBED1E4DEBD2C7DAB3DCA79AEBDB0F8F73D00
S321000027F06733913DF579B9BD680E98BDE80B3DBDEFBC74BC4C4B8ABECA1A80BEE7
S3210000280C7E2650BE30F1293E8B8C013D4217F83D2761D4BD2E104DBE6EF78FBD7A
S321000028287C110BBE6D2D43BD136BF63C2A3B08BEB1A4083EE86DACBEEA3AA83A63
S321000028441ACD243ECA08E63D82CB313D19D3BD3C411C993D7FEEABBD76D1523EB5
S3210000286098F1373E173701BE9B355D3A4A979ABD041E8ABED44FD5BAA2021BBE13
S3210000287C3633C43D012F96BD56678DBD98F6A5BD410B5A3E90E4CEBC026E293E9D
S3210000289809572A3EF99BBDBD0AFD243E7056B5BD2EEC85BD5937603E77CFEA3DB0
S321000028B43CE66FBDE20A373D803F8FBEEBD97DBD3604BCBE8488DCBDB8F808BE7B
S321000028D0E10B35BD80C9253EDC00D8BD75EFE7BD780371BEF9E3B0BD657022BD3C
S321000028EC817A343E6898563CC90F24BDDC40663EFF8688BEEAA336BEA83181BDEF
S32100002908481FB53EE2D785BEAE7DAABD6D602D3DEDBDACBEEAB4FF3E6C02A3BCD2
S32100002924A7EDA63D463819BEB01A413E198D15BD4664BABC62C10EBD525A8CBE00
S32100002940B85E3D3EA61EAB3DA10FC0BEC4F60DBE975BB73E6F50B1BDB8AC2D3EA2
S3210000295CDDFB7BBFC90ED1BE55622ABEB84635BD82FA1A3E8397DA3D2E03B8BCA8
S321000029785F7B5BBEDAB79D3E2AF499BC92AA7DBDE261163D2CF0AF3D38A09B3DA7
S3210000299487AC5B3DBF1B0F3ECCE0973EC626F83CB030A7BEA3BA51BD6F0234BE7B
S321000029B0EE2C3EBE43F63F3E14F43ABE3E36393D345F6E3E0457A23DA66FEDBE16
S321000029CCBA8D32BECF87F73D2058083FC4C9CD3D536B3BBFC1F703BFD63B0DBDC5
S321000029E8FF91073E78F592BDEAFB78BE948605BEAED9553DA90D093E834435BD75
S32100002A041C2C99BDAE10823D4BC41B3FC159303D7152AFBDBD52133D03F0573F8E
S32100002A200FFECB3DB8F26FBE484C5FBEFC1A39BE1120003FEBC089BD02AD32BDEB
S32100002A3C7B36B23E05332D3CE19D9E3D9540DA3D853083BE1C9B1ABEF0C1E9BE14
S32100002A589F1A7CBE5B48A93D04ED403EE2CBEA3EBDF9D03D8A8D8F3ECDA0EFBBDE
S32100002A746515A53D203B043E80F529BFE1084ABEE2BECEBD420FFA3DC701803EC0
S32100002A902E608CBC4BFA8FBE7391253D9A43AD3E321D8F3EBC7909BE4B4C5C3D46
S32100002AACA1B2EBBD699F953E4F200D3E919F04BC329007BCA600B43D5CF44C3D93
S32100002AC8A794DD3E165C99BD787BBABDC5F693BD8E6F553C5CBEFABDEF67BB3EAB
S32100002AE4722FB13E29FDD03DD07F19BED722B3BEA97AA0BD2D2B1ABE041D04BFE9
S32100002B0011888BBD926095BD6196EEBEE84C3ABE555DB93C2E41A13E5B7D8C3E28
S32100002B1C24A6BFBEAA66A8BEF6C21F3E47A3683D4655133EE6425EBD68E6ADBD4F
S32100002B3831B5853D42FA383F90CD7A3DBC37463E5617CCBD11892B3D3B44F83DE9
S32100002B5430BB273C23AE1FBEF647003DCD6DDA3D868B62BCEDE40E3DFE5D023DB3
S32100002B703585EF3CBE7DCCBD4B374C3D641A3B3E9A39033F47756F3ED689D13DAD
S32100002B8CED0DC93DF27B4F3E0196173E336E7C3C6C5AE83D34428E3E88D0013F23
S32100002BA8B3D687BD9363093E3AF17B3DAB2CD5BD47AE303E00028C3E9879233E14
S32100002BC481E83F3E0F68BABDD7356E3B2255BA3DA4E7043C924DA1BC6965BC3D2A
S32100002BE0BBFD263EC9C2933E4706DDBD9A822A3EF57C46BDACFBBDBE9847403EFD
S32100002BFC6DC5D13D1352F4BDB2A61F3E2A6315BE8F53C4BC868A523EEF4D8C3D45
S32100002C182F85BDBB867E8C3CAAB0423B4360CABCBE6BABBCA3D3253E03A2263E30
S32100002C34D4F14DBD02AF233E4844B63E034DF23D161BF13D46E8773D2565AEBC69
S32100002C50150DF23EE0555F3EA640643E0104F93CF047323EC411833ED6A834BCD1
S32100002C6CE909183E673C8A3E59A5D13C5EF3573E2D095C3E09E68A3CE5307C3D4F
S32100002C88AD8094BCAA549D3DC329493E28AD9D3D904C363E74FC81BD5C8F66BBA9
S32100002CA42D6EC63D492AEABD7D8406BDBACF3A3EC17C63BE331FD33DFA96833B83
S32100002CC0D38F8EBE839712BE6F90B7BDDF9EE93AD27DA73DFDA703BE844DBA3DE7
S32100002CDCB535283E4EA5DDBD2A683EBBFDE6FC3CD4BE45BD61E6703D005D9D3D94
S32100002CF89218053E7C3BD23C8A19C7BD236923BE92950F3E79E05A3D0914433E72
S32100002D14B91806BDC2C9A13D41984C3E8930123EF9EBBC3D67AE423DAFCC56BD35
S32100002D3026BA043E0A410A3E7A0BDE3D2AD6703E21C76FBEBFA384BDDDCFB43D29
S32100002D4C5A28023E9AE2CDBD4F39783D083D043DD3DF26BEBBB14CBE87DBA0BE0E
S32100002D68DE4221BEEE037EBE327D6DBE16E457BDDD6F4EBD960AC9BD85EF77BC11
S32100002D848578233E9604F1BE97B5B7BB9CB6BABD5A0F213E7260FCBD0295DABD7E
S32100002DA0C739A63C697AFFBACC1B60BD63E1F0BD6E40313CD7C19BBDEC7A7EBDF2
S32100002DBC7DFEBDBEE39E1DBE7C05303EB48EE6BD094614BFEF6C23BE64C83BBE4C
S32100002DD8D3F6C9BD36F62A3E24828FBC3185B23D66730B3EE45EB93EE566E93E93
S32100002DF4EF263CBEF495C33E209016BB7A743FBD9481E1BD46B5243E79DACABECE
S32100002E105FEB99BC8EE68B3EC6932ABD8CFFEA3DD1821A3E6F0D2DBE033EC73D7B
S32100002E2CD7E4A63E900C2CBE681594BD91B2CB3D3A010D3E1213AF3D1024CE3D70
S32100002E48E751223D8CAA913E1779BBBD4628563E7C74C9BE6BBD123E61BD81BD77
S32100002E64785CA33DC0610BBFA5A0B1BD5B338DBDE5C4F23C338284BD2FA5553EEE
S32100002E80F8CEF9BD0193003EF3BF5DBE2F96BCBE80BF37BE190B09BD2585A9BEA7
S32100002E9C6687FE3E9846C6BEDFF5F73D1905D0BE32A1883E68946F3E718917BEC4
S32100002EB843EB433E97352A3F378F58BBF033E73D6AF88FBE891C8FBEA83922BE92
S32100002ED4B57C3B3EE721963E87CEA83E191169BD15F7553E0A3082BEE21F583D1C
S32100002EF0CA74BFBEAA20D5BD9F9194BDF51D733E1CE62CBE767873BE064EE93DE0
S32100002F0C5FDF203FEBC94DBD4AD3603E9016E53DB063333D3969263DB832F93D1D
S32100002F28FA4702BE517B75BB14C3663DF64E6D3D6BAA52BE3A61373E75B0A6BD65
S32100002F443EF0D9BD9023B13DD7C9523EC61C553A5A25EFBC068D8A3E1A1D4D3D1F
S32100002F60FC5FEFBD595B27BD1019243DB317463E610D6ABC8D7624BEC75C0CBE72
S32100002F7C08B46EBD7F7A743D44CB06BE0A11513E61E84A3E4CCF473D470617BE93
S32100002F982DD2FF3D0CAA18BDE224983D109974BE9F559D3D9D7A28BE046932BF72
S32100002FB4854C94BE79ED89BECFFA9E3B5BAD00BE5C2BDE3D19AFBE3EE6A22B3E6C
S32100002FD0B26DE03C50ED093DBBE854BDF8AD3C3DA665693D1DEC93BD5E5F0FBDBC
S32100002FEC945788BE5D244EBD2573BF3DE43C37BE587EF73DCA84543E2262523E5F
S3210000300841C2D93E21E73DBD21477C3AF820253E95D39ABE4948B13D5BEE173B17
S32100003024ECC124BDD6B18ABD8B999CBEAE5F26BE978010BD9EBC05BEC3EEB43E1B
S321000030407B0A73BCF900A53EE559B23E8BB786BD5D8EF53DCD0317BE001D0F3EFF
S3210000305C06AEBBBE17ED40BC8C5703BE5B0536BC5BE14ABE888D08BED2998CBD5C
S321000030788D05A2BD2D635FBD78889D3EF468373E83FAB6BE9372EE3C3637A6BDFD
S321000030949CE6F0BD35F51D3E8E7DB6BE8C8A16BE91D8053C8ACDA8BC4BED973D8C
S321000030B0169F25BE653A6FBEB4E0B23D0D17EEBE178D92BDCD027DBDD1E73ABF9A
S321000030CCA9C75C3E56FB4C3EEFC5973BCE87B53D0F9632BDD9BDB1BE7F771BBEC8
S321000030E81B4B22BE6315453EF37571BE075E2DBEDB34553EE9A208BF43ABC53EB9
S3210000310414F881BD46CD17BFB9CD263FB99100BE6E76753C46E409BF50AC0D3FB4
S321000031207B8BEEBE97B116BC8FED72BE1D81C73DAF82CC3EC2F16FBE6CB14A3EB3
S3210000313C8BF21D3E232258BE4F81213EA9C31F3E1FB498BE12A7D1BD0EC25DBEEB
S32100003158C7436EBC776D2B3E7EE664BD296C633DA71DAE3C99D9C23D3F3E5C3EE4
S32100003174D594AA3DD9D80B3E0B6BC03EFB5E1CBE9CBB123DB0198D3ED68195BE64
S32100003190D7E71D3DCC200ABF685032BD0460E63D7976E03EEB42573E30EB513DAA
S321000031ACA05A1BBE4C21F23E3222503DA18423BD5BC5243D17E4D9BD4E33053ED5
S321000031C847EA0C3E3249A9BE84FE66BD7E8232BDF65DA33EBA131BBEF7C72D3EF1
S321000031E44143673D835A913EB5DC733DB49A9CBEE8189C3E7CFE123C99F70CBE10
S321000032003A9DACBDFED3763E2F7A21BED730D23DC9EF93BDB6C91CBEBF9C3A3E15
S3210000321CE16E483D9F854ABED17A3ABED17138BD5798B2BC35180A3D8D30E53D46
S321000032386E9F313D46DA7C3E55B693BDCB42ECBC7E2C1ABE28CC973E041F28BDBC
S321000032549627E1BDB20247BE79A3ADBD53E6253D192CB6BCE93F5DBDF58FA1BD48
S32100003270E3C889BD3668AB3D20DB5CBC5D87EC3DAFD8F53DEB2748BD3AA88DBDA9
S3210000328C12FC1A3EB52A46BE556A11BD090D2E3ECE84ABBD5354EABCFEBE1E3EA9
S321000032A8C434FB3CFA253ABEA4CC253C6F59EA3CF40C18BE5CB0BEBD7313DFBC81
S321000032C47A27363D0200C4BDEBE9473D53C7083CB3DE1BBE5E09DB3E5235BBBDB2
S321000032E091C0763D1C171C3D4CF8213D31A45DBDE9B2183D664F8FBD311DEF3C41
S321000032FC3BC30BBEA57A2CBDD8F214BE7BA790BEF0271C3E8A66823D7A5216BD16
S321000033181E10B2BC899DBB3DDD990E3EE71BDABD222F6B3BC7D3223EA2A6AFBED8
S321000033349278CBBDADACDABAD43684BC2C2F7F3D5781F9BDF6CA2BBE8EA7B4BCBB
S321000033502525C2BD2695F6BCD8734EBEEC7F0D3DEE1982BE95663FBD6DE4883DC5
S3210000336CBF4EAE3D2D9DA93C68A698BC2BA1C8BD0D6B013E6D3A05BCD8951D3DFF
S32100003388F48D6EBC3E9769BE84E03E3D665D2A3DCC0EEBBD1C1F80BBCCEF2C3F55
S321000033A46430903EDB5F013D7742833D0DB27A3EB42592BE0DB2E13DEC08E73D1F
S321000033C0681DBB3D4A71CE3CF35F0D3EA93E1ABE999C8D3E4B3A82BBE56DB1BCCC
S321000033DC347F12BE02FACD3E22F169BB8CAB473C4EB5CF3D3CABBE3DA1DE71BEB5
S321000033F8B695A43D2A6A46BEACA0E63DFE4EBB3D1FDD973D3E05A4BE0005D83DAD
S32100003414CA478DBE137A5C3E909AAFBBF76401BE420FFBBD3830FD3D36D94B3E22
S321000034301682953D611995BDDED56E3C88BAD03CEACD5BBC7B3E3DBDD378B23EDD
S3210000344CC219E5BD30D1FCBD1116063E0C17B4BEAD89E73DE56B343E3870FD3D29
S32100003468922150BEFCDA413E85D6C13B4C720C3EFF2BEFBDF004983DD38F4D3D42
S32100003484568A14BE3094C13B3B1083BEB6B5ABBDA7B1443E9304F1BDA48B633E66
S321000034A07FD8F3BCC82CB4BDE1600FBE1C9EAC3E08A820BEB61C143EC8449DBDD5
S321000034BC53B006BCC5178C3EE9A138BEF9A752BC3117F2BD842138BD6E62B3BD84
S321000034D8C2BC94BDE348053E2E08F03DA57046BDCB6A29BDB8A5B53EF20E853CEE
S321000034F4E8D900BED7F31DBED5B428BE42E9D93C00DD3FBE5338A3BD3CC0503D95
S321000035108A7B8ABDFC6BC33D8D3FA23DE86426BD6800A73DA321A23DA3C8A6BD4F
S3210000352C68190A3B1A19583EC39D783E3C23903EE61CCE3CCC4B0ABE171689BE4C
S321000035484E3AFEBD7A6B793DC6326E3E22510CBE6B08883EC7337ABEADF2303E2A
S321000035643E38063CCC14FB3C80B3363DB32E3A3E7434953EBEDD583EE2C04BBE20
S321000035801D4C473D60461ABE4926DD3D1DF5DEBD8EA3CA3DC486D93CF20CC93DED
S3210000359CF5D88DBDE76B1D3E39D0C3BB65781E3ECFA3E93CC842043DC99ECA3D39
S321000035B8460F173DC19081BD133C68BE68B35DBE2A298CBEAFE5D43E765530BE12
S321000035D40C48B1BE2A17AB3EEB720FBDE85A8FBC422B86BEECD8B93D970802BD69
S321000035F0C22B48BEC97CAE3DA0AF8B3DF2D7E1BD61D380BE9BE2C7BD40F2813DB5
S3210000360C62560B3E3A2F653EFF623ABEBA2EB93EEF3704BF49471EBD40FD88BD81
S32100003628B7080F3E76C565BE146D2D3D7563B83D67E3A2BDE537B9BD334B01BEE6
S32100003644AE3AC3BB6DDBB13ECAB802BEE97B8C3DB14FDD3CF7FD033EA9A5A1BE5D
S3210000366056189FBEF380F8BDC089573D1E301CBE61B3F13C3D97153BC7D60CBE84
S3210000367C8574AC3E2BD5A0BEBAC761BDFB4418BE6BC4CDBCA9D71A3E7E2450BCF9
S32100003698755A92BE2C37643E73C7BA3EAF5AE3BD7BC3F23D9135CE3E8F2BAC3D2F
S321000036B40C8644BDD26A0D3EBB9248BD1783C83D12DC7ABC011913BE245645BE5D
S321000036D06A02B7BB5D469CBC8566B5BEA1DB45BEDCC61C3E9C421CBEAE45103B30
S321000036EC45D9C83B47DBF9BD1E04C03D17FDDDBCAE261D3D7826C5BDCB8D7ABE19
S32100003708D16F763EF083C13D4560AC3D7D42C83D2D792C3E7BFAC93DE845923C62
S321000037242AA620BE5BC911BE04A85CBD64AB05BEDF29473ECD433FBD400508BEA7
S32100003740ADB53DBE5A1A303E36C803BF056870BE43DB47BD40900F3BB801263E74
S3210000375C0D47863DA3B8BCBE9D8880BE45A546BCB000153E66ECF33E204B5EBE03
S32100003778D7FE863D22DCAF3D78E20D3E11D11A3EF0E55ABED577D8BD66306DBE3F
S321000037949889D23D43AC4BBE47C4DFBDB28429BDB806D1BE04D875BD16D4B7BD6F
S321000037B01207A0BD891F5F3C55E1E5BC41FA363ECEBD283D27B728BD770FE13D61
S321000037CC7F86AF3E7534F23CA552773C941638BD2DD7273E450D4BBE03C873BC0B
S321000037E85AC221BB750E24BE10D22F3E2674A33EC680BABD51D9A0BB46D7D13C2C
S32100003804E8FD153D8530D4BD567376BE349EE2BD9B2C1C3DC8FFA83CD17B1A3E48
S32100003820B25FCDBEDF13AEBEAF4D603D648531BD227FEC3E6FC95DBE7232123B0D
S3210000383CF640403E5848E13CD0E0B73D293E563EC07606BDE2D825BD918D82BE67
S32100003858C429AC3DEDE9173EABA5CA3D3C627FBEC168EA3D1A822DBDB34F4DBD39
S32100003874116EA8BD560963BECB2F89BEE3ED283E0F5F273D40C42A3D2A406F3E03
S32100003890263AB23D0D9FFEBC90D4B03B0DE4B1BDA0D0C93DADF145BE98DF413EA6
S321000038AC031E1ABE4BC48ABE77994E3EB86366BE9D077ABD07FBF8BDF191BE3DC0
S321000038C853667BBDDF876E3CF75D15BE6C300C3DE678FD3DF2BA043DBA31B9BDEB
S321000038E451BB843D70EE2C3D2A1C82BDDC391C3DD406EB3CEA02E7BC8E57CEBD3B
S3210000390064D58BBDB832083E189D073E4CAA30BD53F8433D1E8587BC1289B13DDD
S3210000391CDC0F103E6A1ADCBD774233BC3540833DABA2CD3D256C983DC6BE223DB6
S321000039382E57323DE9C516BDDE280BBE16BE373EBED3023EFAB87F3C581C093EE7
S32100003954E2789DBC312A313CC5A9773D18D1ACBC6EC43BBD05B28A3D0E54DA3D42
S32100003970CB4D4DBDA131B23D6BB5C0BC35079A3DCB7B3C3C38F0C43C6FB697BC45
S3210000398CF7A4723CC087E7BCB7E229BD497979BCFC20933D8C660A3D1A76D93CA6
S321000039A882D8E038C23D02BD80069A3CCE78E9BDA492A9BD75225A3C0A06393D36
S321000039C46DB37A3D6E93033DE641053D40A9FD3C45346CBD0E32493D523E373ED1
S321000039E02D9D823C2D2204BDD6F92A3C2C7BD33DDA83E33CAC289DBD90DDE6BC88
S321000039FCF85EDDBD18A333BD453B0B3C478E233C3087E6BCB701A13C7F5913BC7E
S32100003A18DB8138BC3D3F553DE25EAE3CEDBEB1BC4A1E3A3D84718E3DCDBD94BD72
S32100003A3419AF753C302286BDCC50CEBDD97FB93D30B42B3D8E4ACABD3B7707BE4B
S32100003A502A3A0DBDC5E1323DB46663BD5F1CD0BB56E54EBC0DF0A5BD10E9EBBD8C
S32100003A6C7A1902BE0FEB183D1A4436BEFD45BFBD0BBA2A3D37AD863DA3B29FBD02
S32100003A88BBBEB4BD33ADA7BDEC21113D3CD7A0BD545152BD15F0D63C3516B33D1D
S32100003AA4C9CDC5BD79D7D5BDAD19F6BBB773033AE98813BEBC0953BAE6364BBDF0
S32100003AC0D45FA53DE5D209BEF80B2D3D17E36ABD2558C4BCD0167FBD1768C3BDA5
S32100003ADCAB4F3B3C21604F3D09758ABC1D01A4BB0869153DF98C89BD50AFFCBDC3
S32100003AF8D950E6BDEEA24D3B775ED83CDF45E73DEA7959BD15BD50BD82ACD0BD84
S32100003B14A02679BD852C2CBEEA6B1F3D1676B3BC438A113E823E8F3AF19D943C49
S32100003B30925BEEBD88CC813D2683093EEB6605BE57E0F13DBB1132BD2E9D5BBDC2
S32100003B4C7CEAE33D0F0B0B3E7C718A3DC38AF7BDF148BBBD3406D839931B713C62
S32100003B689A6D7DBBB3A3983BE62286BD4C6520BD695E6E3C97975CBEA016A1BD2D
S32100003B844D8313BD11FA9B3DCBCABABDCE013BBEFB75823DF95B423E14DBCCBD4D
S32100003BA07709303D07A68C3C1167A6BC9AA5C4BC3192913CC54DBEBD0BC6F9BC65
S32100003BBCA5A0163EF07D8E3E0502E53DB5FFA8BDB1FC243EED22C23D1C30ABBD02
S32100003BD82B968DBD4107933DC490183E394F3EBC92F9E73D46255C3CA45434BEE0
S32100003BF41A6F493E80F8F33D8C1255BECDA62D3C3BC92CBD317CDBBD8A025EBD91
S32100003C108F86803E5CED45BBED366DBD44B419BD7F41813C8973C9BDB42EB03C8E
S32100003C2CC05D5F3D07B9F3BD1F15F8BDF22A8FBB9C2878BE0D7257BEBE04F9BDF8
S32100003C488D69783EC35931BEC35F85BE8D26083E7D149C3DAFA55EBDC8B5313E80
S32100003C648EB1513C991F013DEB7E87BC1F84AB3D1F4582BBE67441BCC3A6803E26
S32100003C8057FC0A3E58CDB9BD0E4BFFBD8862243E9E9657BD06A900BE5CDAE9BCFB
S32100003C9C5B68C5BD1D12C1BC3870F6BCE762DF3CA1C5293C8E9122BEB8C7C53D0C
S32100003CB8D5C71A3D85F835BDE6299BBD18200EBEBEC7B8BC53E920BE4808013E7B
S32100003CD4130024BD5019A43DC0EF6D3DDB8351BDFDEFBCBD5BC4B8BD85C8DD3D6B
S32100003CF0505C7CBCF81C91BD780D86BA46570D3E568C34BE63AD683B5877C53D67
S32100003D0C63C9AFBD5BC22CBE380F0DBCE85B363D2432343DD7CDCEBC3534F63D9F
S32100003D28721AB5BD8C458A3C0137D23D06BF233C4DEC603DD998E13D91667FBEE0
S32100003D44271F6DBDD1A22BBEDB47C33DCFA6EEBD750470BD81D5FE3CBC75E13DCA
S32100003D606A39693A8EFC19BB3350583D4D45903D5EF857BD9071833DAB6A71BDB8
S32100003D7C6F1714BDCD0319BEA210843D45C7023E062BB63C520B833DAAB8C93CC1
S32100003D980B9291BD0F2B83BE9889AFBCE897183CF9EDEA3DCAD3AC3D7496F93C72
S32100003DB4E95F10BD8E9362BDC627D23D936242BC4B052E3D663A0C3EB8FF55BD3B
S32100003DD00FF15F3B392022BE4E46263C14021F3D6C0C38BE69E64C3D09568ABCAB
S32100003DECC8CCA4BCE078043D58F4543DB32A2ABD1D85D53CBEE790BE50C9EABD21
S32100003E08E97307BCD2066CBE8B13993D04DA80BD1BD09E3C7E7B18BD14FDF23C16
S32100003E245C409BBD490860BD16D6E3B9204D59BD7CF647BD75AA3A3D70136A3DD9
S32100003E40DF108C3ED54DE3BC86C5AA3EEFC3833E91F5E73D79EA913ED7B3ABBD72
S32100003E5C9233CCBE75C06D3D831B9A3DA828903DF976A63CAA68433DD06308BD29
S32100003E787369973D4804BA3EAB021B3E60D7EF3CA3002B3BCE95D23C1681DC3DA2
S32100003E94C08453BE7806033EA4D342BD5B32CEBC2D0FADBCC58E64BDA1D057BDCD
S32100003EB04B840BBD51DA1FBB4C45263EE4AC9ABD6080A1BD8B0649BD0B0794BD40
S32100003ECC8A8A7CBE04B8803DCACB983D983F753D4EF0DCBC059C1C3EBA56383DC4
S32100003EE84BDBB0BDA0C44BBA94E1D0BDD2E0A8BC4EF2BBBC383FDDBDE4EB053ECA
S32100003F04E21B94BDC7A8B53A8BBA363E023BA1BC6B2986BDAAEE5ABD7FA701BE31
S32100003F20394EAF3DDA8C4E3D6B1180BD7572103E02D900BD545F64BDFEB14DBD08
S32100003F3C056D8FBD0861FF3C0476D1BCA828E6BD9DE8463D83E0F43A70EA25BCB3
S32100003F587B14943D0F03E63B83C2F73CD2601ABEDBEABDBDE5CE883C73229D3B0F
S32100003F74C56FB6BB1C44C5BD436141BEFB8409BE4DBD593D76AB31BE4501BB3DCD
S32100003F902C15A2BDF7890F3EAEC6D7BDB783C3BD016017BEC8C7283E9E580BBEF6
S32100003FACEDC5B3BCC72AB23B19922EBC8D0C113BFB0CD6BDDE91743D550D7F3DA2
S32100003FC8296D83BD6188CB3DBB6D78BDAED2133EA9237E3D9C538A3DA20C1D3D9D
S32100003FE48483DD3DF4BAABBD34FE1B3E498B9ABC6ADD2A3E8FF3173C7BD09A3C2A
S32100004000786CC73AB5DDA2BC83936C3E45A12BBEB04AD2BA50080E3EE51A0C3EC7
S3210000401CB8DFB33DD664ECBCB4DB8F3DEB2572BDFE46043E916DA83C79F370BD7E
S32100004038D20D8ABD8CAE0D3EB11F2CBC528B77BC3A1584BE78DF2B3E029AA8BDA1
S32100004054BD26083D316849BE85E0E7BDF0D55B3D9469D83DBCF30E3A1F46993DD8
S3210000407076A3E23C98FA413C367792BD34B9F23CE018C93E81FB0E3D4C11263E4A
S3210000408CB478AF3BCD8C0ABE32038D3DF2B3DC3C3ECDCFBD7921023E07B3CA3CEE
S321000040A8F61200BC1A8BE7BC5A3928BDCB7B4D3E91C239BE138AE5BD2C26E13DA8
S321000040C45DA057BDDF74043F0641BBBD99C978BD858C053D543A483DD1A466BDDF
S321000040E08B56B2BC3AB7303D803C9CBD31DEE13D7ECCE03D0DA32D3D219078BE67
S321000040FC6A0C5B3DA6F35CBCAB51EEBDE41E94BE176EF5BC151C953D12C8EB3BAF
S32100004118052807BE61CB2EBEC9AD523D2D62DB3D1AC0683D18AF1FBE95F4D13D15
S321000041349D9ECEBBACF908BE1930C03DBBDF7F3EE5EEFC3D17DB56BD738F79BE53
S32100004150B233963D3AA0153C2BC33BBD6DD4FFBC1B5AE13DE0C0793D3274403C7D
S3210000416CF67F88BE7062083D778AB43D74E42FBED99F91BDFA53EE3DFA03673D49
S32100004188798AE43CDF5D0DBEEC0F933DB05998BDFC021BBED5C01D3D677242BE23
S321000041A42E88123D48B296BD9BDC76BD4EE0913D2B7CDBBD0DBE3EBE7F76223DA7
S321000041C0D8C3F53CC57B8C3DA144EA3D8A7A9DBCDC91ECBD4D4675BDB9B5243EF4
S321000041DCB05F19BD3AF48BBD981C08BC994E73BD9E5953BB7F9918BD730F223C05
S321000041F852916D3DD1DFC5BD314117B966305CBD1AD613BEBA31703D138776BCD0
S32100004214A2989ABCDAF12EBC52B9F43CCFE8293E69FA52BC857B31BEFDB4333D69
S3210000423008272C3A8EDE713D6925813D529611BED08D783DDB10723BA801AD3D7D
S3210000424C0A5C1BBC97463DBDCBE3133DE937C5BDD3BAACBC68D78D3D58B293BD44
S321000042682BC1A5BA6A1DB03CB072A73C384EEDBCC881153E9620BCBCB12FC13C9B
S321000042840673B43DC637973EB493C7BCEFF2FDBD87753C3BC025C93C6F6952BD33
S321000042A046271CBD734264BD86E58B3BB0863D3DA2FA093E02A7A43D6FE2BF3D45
S321000042BCF9BE71BDE3A4C3BD20C788BC767E0EBEF80D093D04B72A3D790569BEF7
S321000042D874F011BE1BDF753C5D00C53D5C3109BE44FD70BE7F5BE1BDBE99193D9F
S321000042F463D0ABBDEDF0E23DEEF256BE88CE0DBD147426BD5108533E3D26E33A28
S32100004310A2A987BCC753C53D1D581ABE694D54BDAD018EBDFE4058BD1A04CDBCDA
S3210000432CB9E302BD93FC613D1523F43C462A0A3D1D0DBABDD670C8BCA90BEE3D7E
S32100004348930D013E6332DD3D40D493BD631BFA3DA7D66B3D00EF7D3D3FB506BE26
S321000043649BF3A4BD878CB13D95C75C3CB0FDD73D8834C83DA08528BD7B7D9CBC77
S32100004380F7AAACBD86289DBC493B0ABE9189143AEBB18F3D14D4A9BD4667A4BD92
S3210000439CA1B6E73D82DDE8BCD2365FBC4B3705BE61A979BE3F2E873DC25FA5BD24
S321000043B857CF2F3D8D4F77BDB3B19A3CA2F83C3CFB9EC63D36C46BBC1C6D263950
S321000043D402E21C3E3FE0FABD0168353DCA96B6BD4683593D69AE36BDAA058BBDA5
S321000043F0B2C8643DAA53D93DC5ADDEBACDF7ADBDE5C48E3D37D4B13D5B47A2BDD7
S3210000440C24FBA53DC3C047BDDAAA6F3DAC93F9BDC543E33C0A3B8E3C11C8263D6F
S321000044289D4E623D289E5A3D45DF503DC5B204BD46D7E63B8C03933B77DC9A3DDD
S3210000444422BD433D4B1EC4BB4300363EADC317BE8C58143E8362E4BD4A90A9BB19
S3210000446093AFF2BBD15F323D8701973BB1CB723D44DAF33D188C463D1D5B303ECC
S3210000447CB609173D0F377C3D66CB32BDDC7D9E3C97F0FE3D95A0CDBD36A783BD1B
S32100004498A27831BB49D988BC988224BB27D5523B5E40D6BD26CE783DE841953D3F
S321000044B4C78FBB3D71ED6A3E40BEFB3D54A7813D8F75033D048E5ABC5102F73C31
S321000044D0C50A3FBC1B6898BDD305ADBDB3C1EABC7C7BB93C0155663D6C160FBC9A
S321000044ECB62E063D7FEC1F3EA26DCABCE6FF62BDB312113DF5BAAABD78F99D3DB2
S32100004508E3CF10BCF12B083DC80D413D109CD0BBD77E09BC7F339A3CDB4B0C3D17
S321000045241844B73D5EB2D4BCF9B48A3D67964E3E414019BEDC0B71BC53D1083CB4
S321000045407FC457BDE0A3013DAABBCDBD1F9828BDE65512BC59C5DA3C3EF2DF3B2F
S3210000455C4D9CFC3BB9C2FDBA26FFAC3DE01BD7BD0DBE993D6BBE973DD86BD2BDDE
S32100004578806B0D3DE25D8D3DBBC97CBD6EFB16BDBDA1ED3B1DB1F0BDF792E73C3D
S3210000459445821DBDB33A12BDAEB04DBBBF4D11BC540585BCF5A542BC08000BBD67
S321000045B074B193BC4FA968BDF9B142BDC028103CFF9B47BDC753693B0259E93C9F
S321000045CC6B582ABEC45EAD3DE704C23B2F34253C8B1925BD6087FABB07D4BC3C75
S321000045E86679BBBC734847BDD1AACB3DA2D519BDFF3C253CBB48ACBC50C7163D5B
S321000046040D7477BD2BEB6FBDF10A88BD1B79A23D3B3357BD4A4B5F3DBA4A13BC64
S3210000462070B71B3D78FF043C1A0C93BDAE80BF3AA0BA06BDDD7EB2BDC1618B3DD4
S3210000463CFB7518BD2F71F1BD6AC2943D954050BD298395BC1925D63D75E6363DCE
S3210000465887C618BE28895BBDD776B63D3B3B3CBE3A5A65BD01DAB2BB345B30BE29
S321000046745E48883DC2A166BD9DA1013E2B9BF3BD6689903EE923A43C6EC11C3D0F
S32100004690C559123B3224E5BCB1E50BBD88387EBD1B6EAD3D95B9FEBDED5E853DC4
S321000046AC2164873D657A39BDE7E08EBD712C173DDE04573EF05FA4BC2FE9243E2B
S321000046C8665A183DB543EA3BB37DB63D9074A53CC20C0D3E0741BC3D82BA233E9F
S321000046E4F80FD6BDB400403D94370B3E3EC85DBB27AE963D80C123BC5C99293D94
S32100004700837EB3BCEE16AE3DFC7C293CA855AABD549D5E3CB1ACFCBCC67F80BDD5
S3210000471CBB2BD53D6F3EA2BDF37A93BE2875EDBD0004BBBD79B272BE7A9BAA3D9F
S321000047384B85D7BCE483203DF89EEEBC694D6A3EBABD573E9142B53D798865392A
S321000047544146BE3D47C0A9BDB775B43DAC5306BECD7996BE81911B3C5E8F70BD57
S3210000477072D229BE9449823DA9C50C3DB52C053EE3A095BD41E3823D3348043E10
S3210000478C508DD43D95A4E43D9065893C8F8D2DBD1FC81F3EB1E6C23C907E58BE06
S321000047A8E1D2CABDECB8FCBC7BE2F4BD0B62D4BC73601B3E7CAF9A3B9C9B813D2D
S321000047C4A26C7F3DF1C608BDCA86A0BD5BFC4EBD8B2B34BE95EA9F3D580F403D97
S321000047E0BFB72A3D3C2E12BE936F91BDC15904BC9796A03BD628793D79ED5D3DBA
S321000047FC8236933DD0ED993D2C26753D6CA2983AA17AE73C5E8028BC3F85A1BD7A
S32100004818AF353BBD581286BDFC3FD6BD4B3750BE7555E7BA1CBC973D6EB98BBD11
S32100004834FF71ED3DEA2511BD624C563CD868E0BC3F2C3CBEC3CEFABC480FBE3DD1
S32100004850E3261A3E8602B3BB8FF702BE01CF0B3D0022ECBC45643CBE1585E3BDEA
S3210000486C12764F3D81C4F4BDDD36463EABBF993D006DDDBDB88889BC684874BDDC
S321000048889093C2BD9BBD5BBDC0EF4EBC2E1B8EBD748F263CC55412BD994A1D3D25
S321000048A4CC874F3D9D18513D66CED53DD96A02BD4D07A43DE7768B3CC1CF513D11
S321000048C046EC7C3A590C553DA35B923D2175A2BCE9B1CA3C6EB5FFBC881A55BD04
S321000048DC9F57E5BD45E6603D8AC592BB5FB3CDBC2ECEB63CA5A90E3D91AC353EEC
S321000048F89482043E46943DBCA4D72DBB9C13C23CD7AEDFBAC221C3BCFF881BBD84
S32100004914FD1F6ABCF8E38C3ACC14A2BCA722C63D675DCB3C767B8CBDEFC7A13DFB
S321000049302D62243DBE1D9A3D659F273DC46269BD443B323BBA2892BD569A97BDAE
S3210000494CA5ADB63C26CC773C8935D33D49AC62BCAE4958BE43A702BDE5C3553D8F
S321000049688CFC653D8A37653C6BA668BB1717293E0496E03C031505BD20091B3DC7
S321000049845F177D3D9D248ABC1B45F83C127502BD1202CD3D251780BDBC8489BEE2
S321000049A060F37C3DECD3423E94DFA03CFF018FBD9B00023E6A13453E39B0FE3D10
S321000049BC27CBDF3B7DDA7F3D63A7DAB97A18E3BD61F3EE3DA8377EBC419B06BDB4
S321000049D83A46B7BA1FD7F4B9388E6B3D42A305BD700CDFBC5FAE4A3DC118F43C60
S321000049F47C9DE83DA483F23C450FCB3CF51BE63D989728BC8BAAB53C168C1F3E48
S32100004A100E81CD3C4887EFBC854356BD035A623D9854B5BD8466C93D749C87BDF9
S32100004A2C5D5A043EBB51FABB509E563D59BEC1BD40E547BCECA4B23DB9A2983DC1
S32100004A4838D11E3EC2A5193EC71E063DE44F6BBD068BBF3BA32AA2BCDC3D93BD87
S32100004A64FC8F583D22BAD2BD5017873BFE8D5BBD8135F23DF87DC5BD0F0A32BDF5
S32100004A8054BD5BBD58C155BD5FD4AA3C9A39F83BEE7E3BBD427F02BCFF6033BD6F
S32100004A9C899B063E11E101BC2E80E0BDDC2ED6BD63AFE63B45CEA5B9FEA25F3C1A
S32100004AB87BC7C6BD05B6933BD409ADBC5E4AEF3CC26AEC3DA061E0BC55179E3C3D
S32100004AD4C970693C0CA0D73D9E5A073DB7A6E6BAC12100BD080BA0BC2E52B03D6E
S32100004AF04C60993D7349BDBD9105BBBC9841963C905C0A3D1353AABCCF258F3D75
S32100004B0C51CAC4BDF187B9BDA7C1EB3BFD24013E4E82CBB9FD4CDA3C9DD0883C2B
S32100004B2832235CBB95BA053E0AB959BB452B1EBDD972E43CD056773ACB24883D55
S32100004B447057F9BCBFBB97BC95F8A4BD86FA803D1A379B3DE12BD53B72E02E3CDA
S32100004B603D5FF9BC1871893C018934BCAB6C993C5696AC3B05ABE63CA1DF8E3D3E
S32100004B7C309D6ABDB0CAE7BD41F83E3D2DBAF63DC2AE87BDEC36D7BDC2039A3D31
S32100004B982DBC6F3DD3A7DFBD08FA32BD27E1893CE0C70CBD15B7823D2EAF623C1C
S32100004BB47F41FABD140C233C373E3C3D99DB8DBD3514923D4D067A3DC1E1B1BD0B
S32100004BD068BB26BE975683BDB8EFE03D0E2AC6BD456197BD20AC103BBD3C81BDC8
S32100004BECDA53E13C24D8173D7C6B05BEB195053EE1A4CE3DE8CAD23D976493BA41
S32100004C081B9A523C27C4B8BDCAB8993D0DAC45BDBA98D8BC81DDC73DB3FCFDBC24
S32100004C24329E8A3DB533C6BD70AB6ABD3A27AE3D93775DBDC991B03DF6A3BEBC60
S32100004C40CF32A8BB8C64DBBD216FBD3C1607D43C6C0F54BDF226423B2FC3423D1E
S32100004C5C9A9D10BB03D336BC4A31033D3CFAC03DC8D580BD329BB1BC7B28B1BC5A
S32100004C780FF6683DA26FF6BB7A6F67BD5CDA8A3D15F50FBB07B1323DC381C0BCE9
S32100004C94B37BA73C1473F13D1362A33B25A25BBD1AE0403DC38E023DADA2F5BDFE
S32100004CB072C092BC1F841FBD9458143E4828623C451CC33D9B46773DE17EC73D3E
S32100004CCC497768BBE0DE5C3CF5B5373DEE45BD3D269F1F3D60BEBCBCEDB0393D78
S32100004CE839CE3A3D91E30DBE2038C33D2F9536BD1E8FCE3C58D6BF3CF4A3CC3D5E
S32100004D049698773CEBD9013D00908EBBB25E573D38F138BD17D2033DE756ACBD40
S32100004D2045BDC93D376E63BDE4E48F3CB36F083DD58000BE402FCEBD45F5F43C33
S32100004D3CB2473F3C8E3CD33D5CC2A9BC73B4C83D2FF2CABD4BCDAA3DE66FDA3B47
S32100004D5845538A3CCB8318BE46C5053EA86943BCE3272B3BFF91AC3C6E8E0DBEAA
S32100004D74B83A08BEEF4E35BE63776D3D50386A3D0668DBBCCFF31ABD319EA2BCB7
S32100004D90E34C70BDDC659D3CBD33E53D9982A4BD4A3EBC3DC5C8EABC883062BD72
S32100004DACB4D5F73C66C021BE648B95BE4D19AFBD9EE86B3DFC5F7ABCC853593CA1
S32100004DC8FA9E023E4C207E3D057EEDBD3A9118BCB963E63DA520D43DF02449BCD0
S32100004DE4EC2AA8BDE530DA3B4F213C3DA2655ABE3CF288BD877000BD2FB7D43DE2
S32100004E006A1608BD10BC1FBD03A7273E10D33C3D724F11BEDCBCCCBCD23518BDAC
S32100004E1C3DB95BBC4F8E21BCE60189BDC0034C3CA34EF3BD45C791BEAAD313BEEB
S32100004E38A4303BBE740E62BB6344093DBA93F13D6FCB2DBDCDF2AF3D94178DBEBF
S32100004E54DB228ABC1F5B3FBDF636C0BDB4C2A23DD16DC4BDAC6737BDCFA701BE8A
S32100004E7040113EBE3920C3BD6C967BBD579E8CBCBF6741BDC9C0AFBCFC0234BE7B
S32100004E8C53763A3D54175FBD9A3DCA3DACF1A2BBD423C43DDF5F8A3B288E53BBA6
S32100004EA8D0DB733DD7B60A3ED529CEBD0B4CAE3D6975C6BC46DBFE3D90C5C7BD58
S32100004EC4F07F3ABE187104BE48770F3E7C0D91BD39CACE3D37F01DBE1AAD90BD13
S32100004EE0868D1E3C438F453C9563CB3D89128ABD5A2A5CBD9687FB3CA00525BD96
S32100004EFC4705D93DEB254FBCE1E979BD5C0C89BDE90E363E8881AFBD6230FF3CBC
S32100004F182B3210BE330117BDEB7F073EE88E443DBCE3143DA5E90BBD4683AFBD23
S32100004F34E0C91A3E6D7379BD528F933C8EC913BDEA7B27BECEFC9E3D0854DF3D06
S32100004F5002B73B3D18E3F1BD462552BDEEA70A3EEDFCD0BD4A264DBDD9C08B3DBD
S32100004F6C235A52BE111E01BDF90927BEB2FFBBBD6BFEC2BD201A8FBDD3412CBC2F
S32100004F881676F33D14BC293E50DA263E2B2E60BD52F5073E41DD81BC87C221BD02
S32100004FA44F4EDF3BD8F2F9B9C0451CBEA47408BD33240DBEA244103DDF0046BDC5
S32100004FC01E4E8BBDD9F961BC432B2FBE65F08F3DCFF5443E089683BD2C0541BC5E
S32100004FDC40568D3C00F60BBDD52B7EBCB34C2B3DCC7376BDDA46B5BCB4BB19BEAC
S32100004FF8CAD6393E3A9C8CBED19F2EBC0F7A7FBEA2B2ADBD98F8C7BC9E18CCBB32
S32100005014EA9D92BC559BDCBDF503303D468A1EBD19B4973B868E6FBDBF4FC7BD9B
S32100005030B89BAEBDCCD421BDD796603D5A2035BDC8BD3A3D1A0DACBD639C783D6C
S3210000504C4F09B83D2E3A143DB82B913D0DE2CA392897F8BDE65CCDBCCBDE673C0E
S3210000506892EF6DBDB66EB23D5F28C2BDEA9B183DB4468B3DE3D8F43C6C215E3DB3
S321000050841A6499BD2B2404BEA29A043CC43C863E1AFA93BD2778F03C353F78BC0E
S321000050A0F98E433DDCDE383D75B8823CB7AC253DCDA16DBDC80682BD42D1FC3D17
S321000050BC8AB19B3A75B7B03DEAFC22BE4030FD3B62B4553DF8ACE53C3887133DBF
S321000050D8EC98253B0F3A7EBC67EFE8BCAC9AADBC3E8BD0BDF91181BD5998393BA3
S321000050F4FC3A2DBD5476AE3DAA8CA0BD855824BE06A0FEBB783CD33DE80A0F3E11
S321000051103763F2BD3EE1DCBDA28FE03CEE4A9BBD694142BCCFEA723CA80C0DBD12
S3210000512CA5E65C3EDE4D05BEC466363DAB7348BD812AB3BDCBA08ABD6846A53B33
S3210000514897D147BDC0CB283D67E6C4BC3358153DED3F0D3DDDA4DBBC9F48103D7D
S321000051644FBDD33D19C2563DD8F1BE3BBE7CBCBD4F2C133DD0FFBA3D8140943D07
S32100005180ADEE1E3EA584803D836A39BCE9D4003C47DFC8BC55A5E9BDE93854BDD9
S3210000519C9D315F3B0479933D11B3D23CA8078E3D32B70A3E1E7D133DE5264FBEBC
S321000051B8A5BFCFBD17AF9CBD98A0223EE9C4133DBA08963CBBF786BC5C41383E96
S321000051D4E6C46BBD9F1A77BD21361EBC0180183DF509153DB6389BBC8EC7A93C24
S321000051F0A5FADABDF5540A3DCB74E8BC12BA9EBC7286823B8C53AEBC316335BD4A
S3210000520CF6A4B93C9C83783D80689EBC19B3C0BDE20B563DE18CD1BD0E6F403D1D
S3210000522863BA31BE6056B83CE8A172BD64E7A53D953E1E3EB896E5BDE316CDBC28
S3210000524417B0A23DAC32FB3D6C99443E69AC70BE95761ABE122C99BDDEB5F6BD05
S32100005260AA33853EB6944C3D17ADC63D846AD1BCE2A61C3D9F1A07BE55EF563D41
S3210000527C1EB23CBECF85633EF23BA03DE4BA6F3DF2BAE63B75DFC53D131B38BEB6
S32100005298FAD5F13B46F0F23DF452083ED377333CC1AA163E220A5DBD1B27CEBD7D
S321000052B436AB4DBD4EE92CBBC27715BEFDE0EB3D7A26343E624D3BBE37EDC6BB5F
S321000052D06C49E03DA687E6BA6285593D057D8D3D4B4DD4BC09116BBD77C5143C5E
S321000052EC130541BD070CF2BCCF24E3BD0FA97EBD91C6FDBE239E803CC02EF83C92
S321000053089486263DE4307E3D96F5BEBDF36747BE1F6D1F3D7BD18ABDF188CB3DD6
S32100005324D77E0E3D375E5D3DE2FF96BD7ECAA2BD94BAD33BC767023E702FDABCBE
S321000053407F9ADF3C0E440D3D0D46B13D388DCB3D64F8A3BD42D016BE95E39B3D7B
S3210000535CFAE203BD03284E3D16EFCC3D2F7EC63D40AE17BDAFF767BD4619EF3D08
S32100005378A2B8833D965622BD0B61303EB361C23D838FA7BDC6397F3D474BEA3C58
S32100005394A0E1323D9D02A03D97371D3DA340FDBB482981BBC198A8BDE286943D24
S321000053B0739233BB27E3333C8A2F07BEDC6C3FBEB42A173E45A5D43DF481F03CDD
S321000053CC2E8550BC003E9DBDCA2FA83CAB53AA3D14E8C03C5D6A103E707310BDE9
S321000053E85C67A0BD3DF243BB131754BC6475B0BD014413BECB7BB03D3C5CB33D05
S32100005404A23F283D1DF874BCDDDC8B3C8124CBBDF78F13BD9D44183E843E923D30
S32100005420247D203E317EA9BC2413A5BD7D912EBD1888A7BD183CFF3C189B85BD3D
S3210000543C697CC03D4471B53DA243643CB1448EBDBD061F3DC06B35BD692EA2BDCE
S32100005458172C263E39205B3D1B892C3ED9F1E2BC88E131BD5F3581BCCF19D4BD83
S321000054745EDD52BB683A42BC6A659F3CE513BA3DCB93283DECECB0BB547717BDF0
S321000054901322D93D39C6C93D265FA7BCBF8E9BBC472B043EF75E02BE9709FABDFE
S321000054ACF6A899BD65F7BFBC09EE893C7B0A42BC81B24A3DD549133CAAE762BBFF
S321000054C80C1A16BEB650993D4BDCDC3DD9560F3D3250CB3D6E4FA1BDE4DAE43DAD
S321000054E4124B16BD3B3087BD1B8AB9BC43F83DBDB6D06D3D5FC4173DF1F3073DA9
S32100005500880AA2BCE2F128BD58F471BD725BF73D4D3BA5BC7104C5BD7A47073E80
S3210000551CF21FC6BB35DFA73DB270DC3C6FBD2CBDE8CF733DA061ACBD569994BC84
S321000055381E0A023DCE0F1C3B4A2F40BD92043A3D3922143C379A32BDE51A303E5B
S32100005554D69B193EEE9D4D3D65B5583D99B6C33CE1DE17BEE709383D0FC79FBC31
S321000055701CDA433D0B95EABC00AF393C46FAA2BD4136D8BD4F6E0F3C2CAE993CD7
S3210000558C82484E3D4D90223E1B9013BB2600DF3D81634CBC981D61BD885C823B50
S321000055A8F5BC143DCCEC8C3DD6A983BCD7A139BC8FBF203B6CC1D6BCE32496BD71
S321000055C4F74BA23CF1188FBD4D69143E525B1ABE306B9EBD2653DA3DF58CCFBD30
S321000055E0D3AF843C96F69A3DEF05D3BCA7A2713BC83652BC773E51BDF9FC48BCC4
S321000055FC074558BDA969B2BD692C713D94833F3D714974BE0471193C44A2CBBDB1
S321000056189373D1BDC0352BBEF7DB743D0D791ABD3401003DF6EA5A3CBFC1093E6F
S3210000563462C62E3ED634BCBD5BAA3E3E4002783E3D11263B5ADE293DE2446F3DA5
S3210000565039654E3E2233D33CBDD85CBD88F9AFBDAFFA933D52CC9FBD8F4F85B900
S3210000566C66B66C3D615020BC075D8D3D45E0D5BD5CBB293E851EA2BDFE588BBDC7
S32100005688D5C429BE2FF70C3D35AAA2BD55535CBDAEA8243B973DB83CF3FF13BED2
S321000056A417AFB5BD73425D3C5130973CB9920F3DAC1C09BED3DFCE3C72F713BEEE
S321000056C0FCFAEBBE1B91AC3DCD51B4BDB42B4CBC4D2F0D3D214EA6BD4D846EBA8D
S321000056DC518FE13E8244E93DDDEE97BC66136C3DD5A0B4BC9D8111BE21AB79BDAD
S321000056F84A95F33B5DBA42BEB587FF3DAA17F33C20DB9CBD29DE93BD420F97BEB3
S321000057140A8D903EA32FF6BC9199A1BEDEF28ABD7ADDCBBDAE9C8FBD9511223D70
S32100005730D1CB323EFA34423EECBA3BBDF84D813E9429063E3D8D7DBC48C9EE3DBB
S3210000574C1CE40F3EA102803E91B809BC2B9C2BBDB66EAABC6BD40C3DC0DF1CBD46
S3210000576881004A3D062F613DBC4588BD65C29A3CAADC1D3D34CAE1BC722D4D3E5C
S321000057841BFCAD3C4EA503BD1E3D613D873F5EBBFCA3003EF0163DBDC9B403BD5E
S321000057A023057F3D2D5A2B3C817836BD4A6C16BDB18C133EB27DD23DEB4A0CBDD6
S321000057BC7D4C47BE03DEB9BDA2902FBC467C03BDB08325BC17F585BD028B25BE35
S321000057D8CC6CD1BD6041413EFE240CBCE1A6323DED1D03BEC20B473C2FD80EBEFB
S321000057F43AA12CBE0B5F15BEEB1D703C133E963C0B9C303D4DF26ABC715724BD98
S32100005810414937BDC9B99D3D5CC306BE4278E8BD11D9083EAA57EE3DF671BD3B9F
S3210000582CD158C0BCBCD1E23CD89B753C1949F63C9939893DD630CC3DD0E93ABCFC
S32100005848C212CD3D113EE23B918560BD7B320FBED73FB33CA73F553E30D6653E20
S32100005864D548DA3C727DE6BDD76F92BC474307BEA682AA3DF494BF3DF0B27ABD0E
S32100005880369FD73D0C34D53CD5C8CABDA849433DF15F073EF5AD263C4A7533BEEE
S3210000589CC54694BD6B24323E85CE5B3ED19A8D3C316C9ABD05C2A0BDFCF23D3DEF
S321000058B82F46A13CF8F1073E275C47BE280BF83D93630CBDBFD0FEBC48AD4B3ED8
S321000058D4A4C8F03CEF1D7EBDC3A535BE2CBA9CBC84098E3D6DFA9D3DFAB74ABCEA
S321000058F021A09DBDB6CAF9BDAB229CBD510CE43D9531CB3D216A5DBDB92CF83D14
S3210000590CB534C3BE2C11DEBD7CC9DFB9C97719BD50237C3C50A10A3EEC1D793E20
S32100005928C929B7BD0360D3BD44E05BBD075F9E3DEC84CA3DB3DE373D567C93BDE9
S3210000594432C6E5BDA63202BE7FC536BD4FE67C3DA551DBBD6E9802BE0D7214BE45
S321000059605B47AD3D1D17653E01BE6EBD9D2E4BBD38488ABD9195F7BD0B466FBDE7
S3210000597CABA2983DD0C100BE1C9594BD7951BB3D2CA0063ED02F6CBDB08BC63D5E
S321000059989854773D69F706BE541109BE7C256B3D2146CD3DA34AC33BD660FBBC6B
S321000059B466980ABEA603AFBDC6D8E03DA4D30BBD86CFC5BD4C1410BC869D973D02
S321000059D09390D0BDB1A90BBB1C63B3BDDA08D6BC09175A3D3D02233E40A036BD58
S321000059ECA1A36EBD454C37BDAF0BE1BD8A1D29BD7443423B7D6E98BBF40706BE8F
S32100005A08EF82E33CD1BE473DFD6463BDCF66E2BDE76616BD86AF7E3D0425BA3D54
S32100005A24CC7A06BB19D518BE02D8223DAC9822BC070C03BE13FC81BDF45A4D3E40
S32100005A40EB47EEBD3072AD3C2CC48D3C08D6883DD033A9BD7A54ED3CC55E013DBF
S32100005A5CB0DF3D3D8E3F5E3D7A4B9E3D9821EB3D0CD904BDB71106BD0D4AD63C9C
S32100005A7803A8EC3CFEE1BF3C66C33BBC69330B3DE0C1103E9DD1203D982323BB08
S32100005A94BA30453D9FEEBABD14F5DC3D033FE93DDF6EA93D7DE67ABD0833043DAD
S32100005AB074711DBDFAB5CBBD67E90EBD69EB3DBD98A0B73C63A3563C1ABB863C1B
S32100005ACCEB2DFF3D605D6BB9DD080ABDEFF79A3BC2CBFE3CCDF5CB3D93810F3E2A
S32100005AE8418A3BBE0303FE392CE1B43BEE73D73C959580BD22E64DBC09D80A398F
S32100005B048F4D92BD3B9CD7BDE0D3103DDA1511BE58663CBE547F573DD169B53DE0
S32100005B201B21903DAF40C33CD408D6BDCEEEAC3B7BE14B3DB017EB3C08B44CBDC3
S32100005B3C9552233D5726CCBCCB69533DB280393E9CB79D3DA8507B3DEE34A2BC31
S32100005B580163CEBDADC814BD24DA81BDDB6FB03D35A114BE00A17F3E7FA3A1BDFD
S32100005B74C3F66F3D67FD07BE40E4B2BC03C8E4BD2BF3CE3DDEC3E3BC04BA07BB9A
S32100005B904C3BF83DBBABE93C399808BDB8EE983D6F129D3DD684A63DC78455BEA5
S32100005BAC8616C83D3A822CBD9B609DBC0837E1BD895C82BC4F4BDE3C794CAA3DDD
S32100005BC876ACD9BD2B74FABCFA9794BDD035303D26AEBEBC16D8203D75BE433D0E
S32100005BE47E93833D288AA2BD7512B3BD64D6FA3C71EED4BDDFF90A3D92754E3DB5
S32100005C004E03743DB3C43B3D774DDCBDBC1E0AB9AC2F7BBB47A5A13D0C48823CAA
S32100005C1CB0844C3DB371933C3FAB753D5A5FF0BD93D6173EEF643CBCAD1A8D3C1B
S32100005C38EEA7FABDC024083DDD17233DFB10A53D2A0119BEC249B63C9663FD3D62
S32100005C54EE6A353E178B873C8713D83D1378063DEE5EDE3B06301EBE176479BD59
S32100005C70E3A58ABD0B672F3DEFD1D6BD4CF1BB3CD24B7FBB0753B33DE832AFBDB7
S32100005C8CEA84773D75498B3CF807073EEAFA2DBDBF4F14BA2C9AB5BDAC231A3D03
S32100005CA83A13053CC06B7CBEF434423C0547E9BD0A675B3DDC31163AA79580BD70
S32100005CC404354D3C5D61F6BCB9DDE5BDE3C510BD7F6631BE743A113D9B5EFEBD5B
S32100005CE05D3541BEE46F643DA6BDDC3CFFE3933D0D8B163CD0F3B93DF275533D56
S32100005CFC7513BD3DB31DE6BD4858023CB97A2ABC654BFDBD2C9A41BDCCB624BE08
S32100005D184CC9193DBDD130BE2A220ABEBE05C93D58432B3CABF6123D26D40E3D6E
S32100005D34B38A163ED0F0C03D8D00BA3D6D0A83BD1542F33C4CDC023DA9AAC63D81
S32100005D50C0D578BD3C8EFB3D0905A5BC6AF54BBDA4FA16BDA92955BD1FF50D3BDE
S32100005D6C9C9A13BC2DF9153D3DD1933DD08CD93CF300E33C61EC223D02EE57BD87
S32100005D88C98FC4BD1AA398BD0DB62A3DDD473DBE3A797E3C3810CCBDAC5B0CBDB7
S32100005DA4B0B0C0BD4149FDBD928F103C59B36B3DB15BC03D97F75B3DC9CEFEBC1B
S32100005DC08E5668BDF23B86BC0757F7BD1FBB1BBE5A49A43DDCAC9DBE9CAC913D07
S32100005DDC733952BE5BE1F1BD496DD43BF1230DBE3843233D7B0D673DDC02013E37
S32100005DF8E4C64B3D52D4983D219A02BEB9FD853CA17BD7BC0E0C98BD660F213D79
S32100005E14595494BD3AA5333B8DAC1CBE22C0D4BD326D49BDD6FA27BDA4FE243C40
S32100005E3059424B3D0FA97ABCA9B7B83B8BBFF13D9539313E79AC813CE9E8233D24
S32100005E4CC950A53DA8D8CA3D462E82BD004810BED48E1F3D9CB4A83D12FDCCBD5E
S32100005E68C25635BECF8F903D0A23783DAD6CE13D9F749C3DE9D1123DD74A433C34
S32100005E8498EBA83D1F8B5CBD253163BB1291AA3D1F4CA0BEB613173DD0CDB1BDE2
S32100005EA0675109BD36D318BDBA5F9FBD6BF5D33D54D7223C2258FA3D37F5AF3D4D
S32100005EBCD7743D3E4D13CFBD48DCFF3D5FCF46BD52068CBDD79FD93C536B22BEB7
S32100005ED8E0BF463DC590DBBD8F3210BE2D98583DBBC87B3D6216E43D7D3CAE3C39
S32100005EF44D5C093B24E80C3E8655393E91D91E3DAB034B3D82AA51BE53E84BB883
S32100005F1094216C3EE854523D4F303ABE850A7F3CCCF18CBDDFE65A3DE74291BDAB
S32100005F2C16DCF9BD804A183D06F42CBDB545153DC448CC3C3D85BA3B84B6ABBCF1
S32100005F48240A493E92A7DD3C1710ABBEB4659E3C7077193D7950B9BC42EBA13D27
S32100005F6434D16CBDD3CAF53D5E531F3D639CB73B030AC9BC838582BDB0B508BD1D
S32100005F807DBAF73B341205BD8FBAA23C7296093BDADBFD3C63F8FABCE753683D3D
S32100005F9C737C283C3CBA49BC3273943D5DCE75BDDCE71A3D1CA8793CD9CBAABC25
S32100005FB8E052A0BD46B5A83AF151D7BDE6972E3E96E4B9BE36A393BD41E5A73E77
S32100005FD49ECB573D7CCE2ABE79C3543D398296BD78BA9D3DE0F43FBE8BF64EBD38
S32100005FF04CBCE43B6611B6BC4BC1973DFDCEBD3DC183C63C94CEBABD73378E3E45
S3210000600C1D83DD3D47C5D7BEE33196BDAD72723E30C4A1BD9FD046BC89F9E7BDF8
S321000060285CE01E3E0E11443CB247E5BCFEEB533C7C4775BD165FC73B8A1B733D4C
S3210000604438DD32BC0F7079BA753A1BBD4AB4A03DC28C40BDD41B22BD83433D3DCA
S3210000606014287B3C3FAD823D5DEE6FBD48B6553DB21EBEBC02B7693CC30629BD22
S3210000607C2BD03D3D6A919ABD78C2933D5FACF9BDDA3C18BD23284A3E6F5CD2BC59
S32100006098E0343FBD3283823D33564BBDDF6288BDA3AB83BD99F0433D2D34B0BCE7
S321000060B44C2B92BC687FB2BCCB80A73C93D22EBA1E4CA3BB874E663DA3523A3D89
S321000060D0FB1715BE97E885BC9E43B93DFC2BE1BD121B93BC0BE060BDA7508E3D27
S321000060ECFF522FBDEF9ECBBCC9D4ACBB80F3AD3C5AA6C9BDBAE3893D6EBD13BCFE
S321000061089E8B693C6FF885BD61AC0C3D0E02A13C15B648BD0AD8F43C5D45813D79
S321000061247E02F4BCAA9D203DD258CEBB9284C8BCF81F58BD0200263DE2B17F3C59
S321000061400C322B3AB4D4223C28E99D3DF22E27BDD0141ABD58D38E3DDD08CABCA9
S3210000615CE9EB073E67216ABE6C28ABBDFB730DBE0FB794BCA8A8AABD7E3EB0BB2F
S3210000617838A7903DAFDDE8BC036BE8BDA3653B3C554B853DBCAE943DBE3BCDBD77
S3210000619435035C3DB9AD57BCE9562CBD19DD7EBEB0530BBD2CCE61BEED6D833D47
S321000061B06DF3B3BD54020D3D4814DB3CD6AEA93D91259ABDD0BB8BBC8C3AD2BB4E
S321000061CC73D50D3D4355AEBDB6B4923BFD8F76BD6D4CA1BD1E1FFBBD8769B1BDBC
S321000061E8BB24E8BD1027643DD8FB32BD3F75003D9B511CBCBBD7AA3DC3378C3D86
S321000062040AC4813CBEF4D6B961EDBFBD74ED00BDE3C4823D3D1CA83C7C0A1C3E41
S32100006220A02F27BEBD7D22BD71A95DBDB535443CD2D44CBDD35EC83CE2CA873D9D
S3210000623C2E491DBE60515BBBCA6D163D0C65043D6CF4893C44890BBE1397A23DA7
S32100006258CFBD953D6CFADA3D2AAE8EBEEF2E2F3D4E2F13BE9750F13D48E8C0BD8C
S321000062749DA28E3D9D3A923DDD48A5BD0FBE0ABD3B625D3DFCBBFA3BCBB1833DDE
